:100000000C9478030C94A0030C94A0030C94A0030C
:100010000C94A0030C94A0030C94A0030C94A003D4
:100020000C94A0030C94A0030C94F6130C94651488
:100030000C94A0030C94A0030C94A0030C94A003B4
:100040000C94A0030C94A0030C94A0030C94A003A4
:100050000C94A0030C94A0030C94A0030C94AC1378
:100060000C94A0030C94A0030C94A0030C94A00384
:100070000C94A0030C94A0030C94A0030C94A00374
:100080000C94A0030C94A0030C94A0030C94A00364
:100090000C9497160C94A0030C94A0030C94A0034A
:1000A0000C94A0030C94A0030C94A0034F70656CF7
:1000B00020436F7273610000000000003E5B4F5BE5
:1000C0003E3E6B4F6B3E1C3E7C3E1C183C7E3C18FB
:1000D0001C577D571C1C5E7F5E1C00183C1800FFDF
:1000E000E7C3E7FF0018241800FFE7DBE7FF30480D
:1000F0003A060E2629792926407F050507407F0507
:10010000253F5A3CE73C5A7F3E1C1C08081C1C3EFD
:100110007F14227F22145F5F005F5F06097F017FEB
:10012000006689956A606060606094A2FFA294088E
:10013000047E040810207E201008082A1C08081CD1
:100140002A08081E101010100C1E0C1E0C30383E11
:100150003830060E3E0E06000000000000005F0072
:10016000000007000700147F147F14242A7F2A123E
:100170002313086462364956205000080703000024
:100180001C2241000041221C002A1C7F1C2A080856
:100190003E08080080703000080808080800006069
:1001A000600020100804023E5149453E00427F4055
:1001B0000072494949462141494D331814127F10B4
:1001C00027454545393C4A494931412111090736FE
:1001D00049494936464949291E000014000000409B
:1001E0003400000008142241141414141400412295
:1001F000140802015909063E415D594E7C12111244
:100200007C7F494949363E414141227F4141413E3F
:100210007F494949417F090909013E414151737FA5
:100220000808087F00417F41002040413F017F08CE
:100230001422417F404040407F021C027F7F04081F
:10024000107F3E4141413E7F090909063E4151214F
:100250005E7F09192946264949493203017F010376
:100260003F4040403F1F2040201F3F4038403F63F9
:100270001408146303047804036159494D43007F53
:100280004141410204081020004141417F04020124
:1002900002044040404040000307080020545478C6
:1002A000407F284444383844444428384444287F14
:1002B000385454541800087E090218A4A49C787F6E
:1002C0000804047800447D40002040403D007F1039
:1002D00028440000417F40007C047804787C0804B6
:1002E00004783844444438FC18242418182424186A
:1002F000FC7C08040408485454542404043F442457
:100300003C4040207C1C2040201C3C4030403C4471
:10031000281028444C9090907C4464544C4400082D
:10032000364100000077000000413608000201025B
:1003300004023C2623263C1EA1A161123A40402023
:100340007A3854545559215555794122545478429C
:10035000215554784020545579400C1E5272123960
:100360005555555939545454593955545458000019
:10037000457C410002457D420001457C407D1211D3
:10038000127DF0282528F07C545545002054547CDB
:10039000547C0A097F4932494949323A4444443A33
:1003A000324A4848303A4141217A3A424020780066
:1003B0009DA0A07D3D4242423D3D4040403D3C2409
:1003C000FF2424487E4943662B2FFC2F2BFF09294D
:1003D000F620C0887E090320545479410000447DF2
:1003E000413048484A32384040227A007A0A0A723C
:1003F0007D0D19317D2629292F28262929292630E6
:10040000484D4020380808080808080808382F1008
:10041000C8ACBA2F102834FA00007B000008142A58
:10042000142222142A14085500550055AA55AA551D
:10043000AAFF55FF55FF000000FF00101010FF003D
:10044000141414FF001010FF00FF1010F010F0142F
:100450001414FC001414F700FF0000FF00FF141434
:10046000F404FC141417101F10101F101F14141480
:100470001F00101010F0000000001F101010101FBF
:1004800010101010F010000000FF101010101010CD
:10049000101010FF10000000FF140000FF00FF000C
:1004A000001F10170000FC04F41414171017141484
:1004B000F404F40000FF00F714141414141414F7D7
:1004C00000F7141414171410101F101F141414F430
:1004D000141010F010F000001F101F0000001F1477
:1004E000000000FC140000F010F01010FF10FF14CA
:1004F0001414FF141010101F00000000F010FFFF74
:10050000FFFFFFF0F0F0F0F0FFFFFF000000000041
:10051000FFFF0F0F0F0F0F3844443844FC4A4A4A7C
:10052000347E02020606027E027E02635549416362
:100530003844443C04407E201E2006027E0202997C
:10054000A5E7A5991C2A492A1C4C7201724C304A15
:100550004D4D303048784830BC625A463D3E49499E
:1005600049007E0101017E2A2A2A2A2A44445F4446
:100570004440514A444040444A51400000FF010376
:10058000E080FF000008086B6B0836123624360640
:100590000F090F060000181800000010100030406E
:1005A000FF0101001F01011E00191D1712003C3C34
:1005B0003C3C0000000000000103070F1F3F7F00CC
:1005C00080C0E0F0F8FCFE080B0002020200000907
:1005D00004000001020200000524001001052401AE
:1005E0000101042402060524060001070581031009
:1005F000004009040100020A000000070502024051
:1006000000000705830240000004030904120100F2
:1006100002EF020140412337800001010203014142
:10062000726475696E6F204C4C4300417264756949
:100630006E6F204D6963726F000000000024002778
:10064000002A002D00300000000000250028002BAB
:10065000002E003100000000002300260029002C9D
:10066000002F00040404040403040502020202042F
:10067000030202020206060606060604040202023D
:100680000404040802011040804010204080408093
:100690000802040180402010020110801020404018
:1006A000200000000200090F0000030401000C00FC
:1006B000000000000000000000000000000000003A
:1006C0005B5449445D206C6F7374005B5449445D16
:1006D00020636F6E6E65637465640022005B54492D
:1006E000445D206672616D653A202200E517F619B7
:1006F00011241FBECFEFDAE0DEBFCDBF11E0A0E0D6
:10070000B1E0E4E6F7E302C005900D92A838B10726
:10071000D9F723E0A8E8B1E001C01D92A837B207DD
:10072000E1F713E0C7E7D3E004C02197FE010E9480
:10073000421AC637D107C9F70E946D180C94A51B41
:100740000C9400000F931F93CF93DF9340916203AB
:100750004B30A8F4E9E6F3E080E090E2841720F45F
:10076000DF01A754B1099C9191938F5F8A30A9F75B
:1007700010927303DF91CF911F910F910895C09153
:10078000630309E613E0F0E0E0E0D0E022E0240FAC
:1007900030E0CE018E0F9F1FB9010E940C1A841702
:1007A00060F48E5D9C4FDC018C91D8018D938D019E
:1007B0003196EA30F10569F7DBCF80E2F6CFFC0134
:1007C00080918002882311F13FB7F89482E08093F2
:1007D000E9002091F200822F90E01816190614F417
:1007E00081E090E0882339F0289A44E640937F0224
:1007F0004091F1004083222339F02091F200211131
:1008000003C02BE62093E8003FBF08958FEF9FEFD2
:1008100008952FB7F89483E08093E9009091E80061
:10082000892F807295FF04C09091F20080E4891BAB
:100830002FBF08958091770281110DC082E08093CF
:10084000730284E080937402109276021092750213
:1008500081E08093770283E792E0089581508F30A2
:1008600008F047C0E82FF0E0E85CFB4F0C94421A18
:100870005504590447044D0451047904790479045A
:100880005C04620466046A04700479047404809150
:1008900080008F77809380000895809180008F7D05
:1008A000F9CF80918000877FF5CF84B58F7784BDA5
:1008B000089584B58F7DFBCF809190008F778093D2
:1008C00090000895809190008F7DF9CF80919000E5
:1008D000877FF5CF8091C0008F778093C000089507
:1008E0008091C0008F7DF9CF8091C200877F809377
:1008F000C2000895CF93DF93282F30E0F901EF5520
:10090000F94F8491F901EE57F94FD491F901ED595E
:10091000F94FC491CC23A1F081110E942E04EC2F39
:10092000F0E0EE0FFF1FEB5AF94FA591B491EC9157
:10093000ED2381E090E009F480E0DF91CF9108950C
:1009400080E090E0FACF1F93CF93DF93282F30E021
:10095000F901EF55F94F8491F901EE57F94FD49110
:10096000F901ED59F94FC491CC23A9F0162F81114B
:100970000E942E04EC2FF0E0EE0FFF1FE95BF94F11
:10098000A591B4918FB7F894EC91111108C0D0954E
:10099000DE23DC938FBFDF91CF911F910895DE2B73
:1009A000F8CFCF93DF9390E0FC01EE57F94F2491FD
:1009B0008D59994FFC0184918823D1F090E0880FE4
:1009C000991FFC01E75CF94FA591B491FC01E95B2B
:1009D000F94FC591D49161110EC09FB7F8948C91D5
:1009E000E22FE0958E238C932881E223E8839FBF3A
:1009F000DF91CF9108958FB7F894EC91E22BEC93AF
:100A00008FBFF6CF3FB7F89480916F02909170023C
:100A1000A0917102B091720226B5A89B05C02F3F2C
:100A200019F00196A11DB11D3FBFBA2FA92F982F14
:100A30008827BC01CD01620F711D811D911D42E00F
:100A4000660F771F881F991F4A95D1F708958F92D7
:100A50009F92AF92BF92CF92DF92EF92FF924B01A3
:100A60005C010E9402056B017C010E9402056C1969
:100A70007D098E099F09683E734081059105A8F3A1
:100A800021E0821A9108A108B10888EEC80E83E01F
:100A9000D81EE11CF11C81149104A104B10429F7B2
:100AA000FF90EF90DF90CF90BF90AF909F908F908E
:100AB00008952FB7F89460916B0270916C02809149
:100AC0006D0290916E022FBF089540911F025091C8
:100AD000200220911D0230911E0242175307B4F4E8
:100AE0009091E8009570E1F39091E80092FD19C0B3
:100AF0008093F10080911F029091200201968F73E4
:100B00009927892B19F48EEF8093E80080911F02BA
:100B10009091200201969093200280931F0281E021
:100B2000089580E00895DF92EF92FF920F931F9354
:100B3000CF93DF93D82E8A01EB017B01E40EF51EE3
:100B4000CE15DF0559F0D7FE12C0FE0184910E9438
:100B5000650521968111F4CF0FEF1FEFC801DF91DA
:100B6000CF911F910F91FF90EF90DF9008958881B2
:100B7000EECF0F931F93CF93DF931F92CDB7DEB7C6
:100B800082E0898342E450E067EC75E080E80E94EF
:100B900093050E941A04DC0112960D911C91011517
:100BA000110589F0D801ED91FC910280F381E02DCF
:100BB000BE016F5F7F4FC801099597FD04C0F80122
:100BC00000851185ECCF89810F90DF91CF911F9126
:100BD0000F910895615030F02091F100FC012083C5
:100BE0000196F8CF289A84E680937F020895AF9209
:100BF000BF92CF92DF92EF92FF920F931F93CF930A
:100C0000DF936C017B018B01040F151FEB015E016B
:100C1000AE18BF08C017D10759F06991D601ED9100
:100C2000FC910190F081E02DC6010995892B79F79F
:100C3000C501DF91CF911F910F91FF90EF90DF9051
:100C4000CF90BF90AF9008958F929F92AF92BF9236
:100C5000CF92DF92EF92FF920F931F93CF93DF9388
:100C60006C017B018A0180910B01882309F45CC02F
:100C700080918002882309F457C08091230280FF6D
:100C800005C08091E00082608093E000E801B12C13
:100C90008AEFA82E93E0892E2AE3922E209711F452
:100CA000BB20D9F10E94090481110AC0AA94AA208C
:100CB000D9F161E070E080E090E00E942705EECF7E
:100CC0008C171D0611F00CF08C2F9FB7F8948092B2
:100CD000E9002091E80025FD02C09FBFDFCF282F4B
:100CE00030E0C21BD30BF701815020F041914093BB
:100CF000F100FACFE20EF31EBB2021F09092E80043
:100D0000B12CEBCF8091E80085FDE7CF9092E80011
:100D1000BB24B394209709F3F3CF5D9A84E68093C4
:100D20002202101611063CF081E090E0F601938358
:100D3000828310E000E0C801DF91CF911F910F91F5
:100D4000FF90EF90DF90CF90BF90AF909F908F90EB
:100D50000895CF93DF931F92CDB7DEB76983DC018F
:100D6000ED91FC910280F381E02D41E050E0BE0165
:100D70006F5F7F4F09950F90DF91CF9108950F938B
:100D80001F93CF93DF938C01D0E0C0E0F801EC0F0C
:100D9000FD1F6491662341F086E892E00E94A90657
:100DA000892B11F02196F2CFCE01DF91CF911F91C7
:100DB0000F91089583E08093E9008091F2008823E9
:100DC00019F08AE38093E80008950E94090490E0F6
:100DD0000895CF93DF931F92CDB7DEB7FC018485D2
:100DE000958597FD08C02FEF3FEF358724870F903B
:100DF000DF91CF910895CE0101960E94DF03019704
:100E000019F4898190E0F3CF8FEF9FEFF0CF0F932C
:100E10001F93CF93DF931F92CDB7DEB78C01FC01F8
:100E20008485958597FF0BC0CE0101960E94DF0354
:100E3000019771F4898190E0F80195878487F80122
:100E4000848595850F90DF91CF911F910F91089523
:100E50008FEF9FEFF1CFFC018485958597FD0BC047
:100E60009FB7F89482E08093E9008091F2009FBFE1
:100E700090E0019608959FB7F89482E08093E9008E
:100E80008091F2009FBF90E00895EF92FF920F9340
:100E90001F93CF93DF93EC01EC80FD806E157F05EF
:100EA0000CF070C057FF04C0240F351F50E040E025
:100EB0008E819F81FA01E20FF31F8E179F071CF4AA
:100EC0009C01241B350B121613060CF05BC0922FED
:100ED000842F8695869586958E9DD0018F9DB00D29
:100EE00011246A0F7B1FAF8DB8A1A60FB71F4770E3
:100EF00049F188E0841B482F682F70E0FB01E15422
:100F0000FA4FE491281708F063C0621B71092FEFB4
:100F100030E002C0359527956A95E2F7E22301306B
:100F2000110539F0B0F10230110561F58C91E82717
:100F300002C08C91E82BEC93941720F12C813D8119
:100F4000A20FB31FE92FE41BE83078F0023011053F
:100F500021F58E2F9C9190959C932C813D81A20F21
:100F6000B31F88508830B0F7E770EE2359F0F0E0F7
:100F7000E954FA4FE49101301105F9F010F1023013
:100F8000110519F1DF91CF911F910F91FF90EF9013
:100F90000895E0958C91E823CECF81E001151105ED
:100FA00009F480E081959E2F8C932C813D81A20FC6
:100FB000B31F98509830C0F7D7CF8C91E82BEC93A3
:100FC000E1CFE0958C91E823FACF8C91E827F7CF19
:100FD0000130110509F4ADCFE0F20230110509F43A
:100FE000A5CFAE0DBF1DAECF0F931F93CF93DF9351
:100FF00077FF04C0260F371F70E060E0DC01149615
:10100000CD91DC91FB01E20FF31FCE17DF071CF43B
:101010009E01261B370B121613064CF5FA0157FDDD
:101020003796A3E0F595E795AA95E1F7EC9FD001F7
:10103000ED9FB00DFC9FB00D11246A0F7B1FDC01EA
:101040005F96ED91FC91E60FF71F4770552781E001
:1010500090E001C0880F4A95EAF7482F013011054A
:1010600059F0A8F02E0F3F1F02301105E1F0DF917B
:10107000CF911F910F9108952E0F3F1FE217F30795
:10108000B1F38191DF011197842B8C93F7CF809579
:101090002E0F3F1FE217F30751F39191DF011197D4
:1010A00098239C93F7CFE217F30709F38191DF01AF
:1010B000119784278C93F7CF0F931F93FA01DC01CC
:1010C00056964C9156974230E9F04330A1F14130A9
:1010D00061F514964D915C91DA01AE1BBF0BFD01D9
:1010E000E21BF30B77FD0BC0DC0116964D915C9172
:1010F0006417750724F4AB01BF010E94F4071F9128
:101100000F91089514964D915C91DA01A61BB70BCF
:10111000BD0161507109DC0116964D915C91DA01B7
:10112000AE1BBF0BFD01E21BF30B77FDE8CFAF0158
:101130000E944507E4CF16964D915C91DA01A61BFB
:10114000B70BBD0161507109CDCF0F931F93FA0109
:10115000DC0156964C9156974230A9F0433091F1FC
:10116000413019F514964D915C91DA01AE1BBF0B1D
:10117000FD013197F7FD04C0AB01BF010E94450797
:101180001F910F91089514964D915C91DA01A61B61
:10119000B70BBD01DC0116964D915C91DA01AE1BD7
:1011A000BF0BFD013197621B730BF7FDE9CFDC012B
:1011B00016964D915C91E417F50714F7AF010E9464
:1011C000F407DECF16964D915C91DA01A61BB70BA2
:1011D000BD01621B730BCECFFC0177FD64C080851F
:1011E0009185681779070CF05EC057FD5CC0828559
:1011F0009385481759070CF056C086898230B1F0A4
:10120000833029F1813041F484819581841B950BD1
:10121000AB01BC01615071092130310509F108F4BD
:1012200043C02230310509F463C00895848195815B
:10123000DC01A61BB70BBD01615071098681978146
:10124000DC01A41BB50BAD0141505109E5CF8681EE
:101250009781861B970BBA01AC0141505109DCCF35
:10126000CA0157FD0796A3E095958795AA95E1F7E2
:10127000A481B5818A9F90018B9F300D9A9F300D7C
:101280001124620F731F078CF0A1E02DE60FF71FEA
:101290004770552721E030E001C0220F4A95EAF758
:1012A0008081822B80830895CA0157FD079633E021
:1012B000959587953A95E1F7A481B5818A9F90012C
:1012C0008B9F300D9A9F300D1124620F731F078C76
:1012D000F0A1E02DE60FF71F4770552781E090E061
:1012E00001C0880F4A95EAF7809590818923DACF6B
:1012F000CA0157FD079623E0959587952A95E1F752
:10130000A481B5818A9F90018B9F300D9A9F300DEB
:101310001124620F731F078CF0A1E02DE60FF71F59
:101320004770552721E030E001C0220F4A95EAF7C7
:1013300080818227B7CF0895FC016370668B84811A
:10134000958126813781613039F0633029F09187AA
:101350008087338722870895318720879387828704
:1013600008952F923F924F925F926F927F928F9249
:101370009F92AF92BF92CF92DF92EF92FF920F9324
:101380001F93CF93DF93CDB7DEB76A970FB6F8946C
:10139000DEBF0FBECDBF9A8F898F7A8369834A01E2
:1013A000D22E18870F833701BC2CDC0159962D9162
:1013B0003C915A972115310509F015C118968D9168
:1013C0009C911997681779070CF0D7C11A968D91DF
:1013D0009C91481759070CF0D0C14C2C512CB6E009
:1013E000CB9E600D711D11247C876B871616170626
:1013F0000CF0C3C1EA2DF0E0FA87E98793E0EE0F25
:10140000FF1F9A95E1F7F88BEF87CF01840F951FA7
:10141000181619060CF0B1C1A98DBA8D58968C9189
:10142000811104C0BFEABD1508F4D394A98DBA8D0B
:10143000ED91FC9111970284F385E02DCD01099582
:10144000B5E0DB9EC0011124E981FA81FC83EB83C6
:10145000312C212C9C0129543F4F388F2F8B4A2D42
:1014600050E05E8B4D8BEF89F88DE20DF31D4491BA
:101470009E828D82D12CC12C69817A81620D731D6F
:101480007A8B698B842F90E09C8B8B8BE98DFA8D06
:10149000A081B18140FF82C0F1E0BF126FC0AF12E6
:1014A0006DC01C96ED91FC912F813885A4014C0DE7
:1014B0005D1D69897A89898D9A8D0995EB89FC89E9
:1014C000F595E7954E2F5FEFC51AD50A6D817E81A0
:1014D0008D899E89680F791F7E836D8398E0C91678
:1014E000D10481F6AFEF2A1A3A0AEB81FC81E40DB0
:1014F000F51DFC83EB83F5E02F16310409F0B3CF23
:101500002F81388526153705B9F0A98DBA8DED9153
:10151000FC91B1E0BB1257C0AB1255C069817A8112
:101520006B5F7F4F0088F189E02D830128E030E078
:10153000A401898D9A8D0995A98DBA8DED91FC91A3
:1015400011970688F789E02DCD016A960FB6F894B9
:10155000DEBF0FBECDBFDF91CF911F910F91FF90E6
:10156000EF90DF90CF90BF90AF909F908F907F9043
:101570006F905F904F903F902F9009941E96ED9141
:10158000FC91EF80F88409851A8592014D815E8176
:101590006B817C81898D9A8D099590CF2F813885BB
:1015A0002615370509F48ACF31E0B31207C0A3121C
:1015B00005C01C96ED91FC91930178CF1E96ED919C
:1015C000FC917301E0CF6B857C85641975090684F5
:1015D000F785E02D73010F8518899201A401898D8B
:1015E0009A8D0995A9CFF901349694913297459136
:1015F0005491D91AB7E0DB9E400D511D1124F90119
:10160000259134913C8B2B8BFA0125903490FA0173
:101610003296749031963491398B3296649031962B
:10162000449041E04C1518F04A1508F07FC0662D33
:10163000062C000C770B7C836B83842D042C000C10
:10164000990B9E838D83A98DBA8DED91FC91119795
:101650000284F385E02DCD010995512CD12CC12CAC
:10166000EA2DF0E0FA87E9872B2D30E03C872B87C5
:10167000A401440D511D47FC5A95588F4F8B698129
:101680007A81660D711D67FC7A957E876D877989F1
:10169000C71608F051CF2C2D30E04D815E81420FEE
:1016A000531FA985BA854A9FC0014B9F900D5A9F31
:1016B000900D1124FC01E80DF91DF88BEF87852DA5
:1016C000612C4F89588D420F531F5E8B4D8B6714D1
:1016D00008F050C044244394480E877041F4C1017F
:1016E0000196EB89FC89E20DF31DD4901C01D7FE15
:1016F00019C0A98DBA8DED91FC91662D70E0B1E015
:10170000BB1219C0AB1217C02D853E85620F731F27
:101710000484F585E02D2F8138854D895E89898D7A
:101720009A8D0995DD0C6394842DD1CF1E821D8284
:101730001C821B8288CF4B815C81640F751FAB8537
:10174000BC856A9FC0016B9F900D7A9F900D1124FC
:1017500069817A81680F791F0684F785E02DEF8013
:10176000F88409851A859D014F855889898D9A8D40
:101770000995D8CF570CC3948ACF6A960FB6F894C0
:10178000DEBF0FBECDBFDF91CF911F910F91FF90B4
:10179000EF90DF90CF90BF90AF909F908F907F9011
:1017A0006F905F904F903F902F9008958F929F92EF
:1017B000AF92CF92EF92FF920F931F93CF93DF934D
:1017C000EC01262F898D9A8D009709F051C06A305F
:1017D000D1F41D861C868D8948E0849F90011124D8
:1017E0008E859F85820F931F9F878E8781E090E073
:1017F000DF91CF911F910F91FF90EF90CF90AF901D
:101800009F908F9008956D3089F3CC88AD888F8933
:101810008823C1F08C859D8536E0C39E800D911D87
:101820001124488559854817590764F44E855F850A
:101830001D861C8638E0A39EC0011124840F951FCD
:101840009F878E87EA88FB88088919894E855F857E
:101850006C857D85CE010E94B1092C898C859D8582
:1018600046E0249F800D911D11249D878C87BECF5B
:101870006A3069F41D861C86FC013896E4912D8936
:101880008E859F85E29F800D911D1124ADCF6D3017
:1018900009F4ACCFFC0134963491631708F4A6CF59
:1018A0003296E491E61708F4A1CFFC0132968590B8
:1018B0009490462F431B342F47E0349F800C911C9B
:1018C0001124F401329634913196E4913323A9F135
:1018D000EE2399F1CC88F4013596E491AD884F89D7
:1018E000442301F10E2E000CFF0BE30FF11DCE9EE1
:1018F000A001CF9E500D11246C857D85460F571F8A
:1019000068857985641775076CF44E855F851D863B
:101910001C86FC013896E491AE9E400D511D1124A9
:101920005F874E87EA88FB88088919894E855F851D
:101930006C857D85CE010E94B109F4013496E49155
:101940002C898C859D85E29F800D911D11248DCF62
:101950006F927F928F929F92AF92BF92CF92DF92BF
:10196000EF92FF920F931F93CF93DF93EC016B01E4
:101970005A0139014801E881F9810284F385E02D9B
:101980000995E881F9810288F389E02D87019301A7
:10199000A501B601CE010995A501480D591D41507B
:1019A0005109E881F9810288F389E02D9301B6019C
:1019B000CE010995E881F9810088F189E02D940133
:1019C000A501B601CE010995C60CD71CB601615020
:1019D0007109E881F9810088F189E02D9401A50160
:1019E000CE010995E881F9810688F789E02DCE01BD
:1019F000DF91CF911F910F91FF90EF90DF90CF90EB
:101A0000BF90AF909F908F907F906F9009946F924E
:101A10007F928F929F92AF92BF92CF92DF92EF927E
:101A2000FF920F931F93CF93DF935C01EB016A0149
:101A3000490138018701DC01ED91FC9162177307C0
:101A400019F5641675062CF0962D872D3A01C92ECE
:101A5000D82E9601261937092F5F3F4F048CF58D3C
:101A6000E02DA301BE01C5010995DF91CF911F9122
:101A70000F91FF90EF90DF90CF90BF90AF909F902D
:101A80008F907F906F9008954615570591F4261713
:101A9000370724F0892D4B01C22FD82F9E0128191A
:101AA00039092F5F3F4F068CF78DE02DA601B40159
:101AB000DACF0284F385E02D0995D501ED91FC91F3
:101AC0000488F589E02D83019401A601BE01C501BA
:101AD0000995D501ED91FC910688F789E02DC501A6
:101AE000DF91CF911F910F91FF90EF90DF90CF90FA
:101AF000BF90AF909F908F907F906F900994EF92DE
:101B0000FF920F931F93DC011A960D911C911B9766
:101B100018962D913C911997ED91FC9100A0F1A19F
:101B2000E02D7B0150E040E070E060E009951F91FE
:101B30000F91FF90EF9008954F925F926F927F9276
:101B40008F929F92AF92BF92CF92DF92EF92FF92CD
:101B50000F931F93CF93DF936C012B015A0139012F
:101B60004801DC01ED91FC910284F385E02D09959B
:101B7000E201640C751CD601ED91FC91C615D705E8
:101B80005CF40088F189E02D87019401A501BE0174
:101B9000C60109952196EFCF0688F789E02DC60189
:101BA000DF91CF911F910F91FF90EF90DF90CF9039
:101BB000BF90AF909F908F907F906F905F904F906D
:101BC00009948F929F92AF92BF92CF92DF92EF9241
:101BD000FF920F931F93CF93DF93EC015B014A01B8
:101BE0006901E881F9810284F385E02D0995950169
:101BF0002C0D3D1D21503109E881F9810488F589BA
:101C0000E02D78018401A401B501CE010995E88198
:101C1000F9810688F789E02DCE01DF91CF911F91E0
:101C20000F91FF90EF90DF90CF90BF90AF909F907B
:101C30008F9009948F929F92AF92BF92CF92DF9232
:101C4000EF92FF920F931F93CF93DF93EC015B0111
:101C50004A0169017801E881F9810284F385E02D68
:101C60000995C80CD91C860101501109E881F98138
:101C70000488F589E02D9501A401B501CE010995EF
:101C8000E881F9810688F789E02DCE01DF91CF91B7
:101C90001F910F91FF90EF90DF90CF90BF90AF908A
:101CA0009F908F9009940895EF92FF920F931F9346
:101CB000DC01ED91FC9100A0F1A1E02D09951F91AF
:101CC0000F91FF90EF9008950F931F93DC01ED911A
:101CD000FC91068CF78DE02D09951F910F910895C9
:101CE0000F931F93DC01ED91FC91048CF58DE02D99
:101CF00009951F910F910895DC01ED91FC910084ED
:101D0000F185E02D09942F923F924F925F926F924E
:101D10007F928F929F92AF92BF92CF92DF92EF927B
:101D2000FF920F931F93CF93DF9300D000D000D08A
:101D3000CDB7DEB73C016A013E832D83FC82EB8286
:101D40005801A41AB50AB7FE03C0B194A194B10812
:101D50008D809E80861A970A97FE03C09194819485
:101D600091088A149B045CF0902F812F0D811E81B5
:101D70009D838E839C2D8D2D6B01692F782F0C15E3
:101D80001D055CF09D818E817E836D83692F782F88
:101D9000902F812F8601C92ED82E1601201A310AC4
:101DA0002B012D813E81421A530A57FE03C05194E4
:101DB00041945108710137FE03C03FEFE31AF30A63
:101DC000F594E7948D819E81861797075CF5A1E0D5
:101DD000B0E0BA83A983C016D1064CF1D301ED91CE
:101DE000FC910484F585E02D2B813C81A8016D8157
:101DF0007E818A149B041CF04D815E81B801C30171
:101E00000995E418F508F7FE0AC02D813E81898105
:101E10009A81280F391F3E832D83E20CF31C0F5F3C
:101E20001F4FD9CF2FEF3FEF3A832983D4CF269688
:101E30000FB6F894DEBF0FBECDBFDF91CF911F91DB
:101E40000F91FF90EF90DF90CF90BF90AF909F9059
:101E50008F907F906F905F904F903F902F9008955C
:101E600008951F93CF93DF93C1E0C0938901882326
:101E700099F1D091B8001091BA008091BC008A7B92
:101E80008093BC0060E082E00E94A30460E083E0F5
:101E90000E94A3041092F301C093F2011092CD01AD
:101EA00061E082E00E94A30461E083E00E94A30459
:101EB0008091B9008E7F8093B9008091B9008D7FA9
:101EC0008093B90088E48093B80085E48093BC00D7
:101ED0001093BA00D093B800DF91CF911F9108956D
:101EE0008F929F92AF92BF92CF92DF92EF92FF922A
:101EF0000F931F93CF93DF93EC01162F8D8D9E8D43
:101F0000892B09F4AEC02DA93EA94FA958AD60E0B8
:101F100074E284EF90E00E94201A205131094109B7
:101F2000510956954795379527952093B800112369
:101F300009F4A7C017EA8D8D9E8D009709F41CC186
:101F400029A131E03093F90120931B021092FA018C
:101F500010921C02DC01ED91FC910190F081E02DCA
:101F600060E009958D8D9E8DDC01ED91FC910190D5
:101F7000F081E02D612F099500911C02013208F0DB
:101F8000A7C010911B020E9402056B017C01809189
:101F9000F301811178C082E08093F30181E08093A6
:101FA000F2018FEF8093F1011092F0010093EF01A5
:101FB000ABEFB1E0EFECF1E080E00813B5C01092B8
:101FC000CE018091CE01110F182B1093CE0180917C
:101FD000CD01813009F0ACC01092CD010E94020504
:101FE0006B017C018091CE018093BB008091F50153
:101FF0009091F601A091F701B091F801892B8A2BFD
:102000008B2BA1F00E9402050091F5011091F601C1
:102010002091F7013091F8016C197D098E099F0913
:10202000061717072807390708F44EC08091BC002F
:1020300083FDD8CF85EC8093BC000E9402056B0124
:102040007C018091F301823009F474C08091F10128
:102050008F3FF1F18091F1018032D1F18091F10156
:1020600037C08B8D9C8D892B21F09EAD8FAD9CBD93
:102070008DBDEFA5F8A990818CA9809589238083D7
:1020800056CF16EA58CF8091F5019091F601A091B4
:10209000F701B091F801892B8A2B8B2B09F477CFAC
:1020A0000E9402058090F5019090F601A090F70142
:1020B000B090F8016C197D098E099F098616970664
:1020C000A806B90608F063CF8091F4010E94310F91
:1020D0001092FA0110921C021092F9018D8D9E8DC2
:1020E000892B09F47DC029AD3AAD4BAD5CAD60E004
:1020F00074E284EF90E00E94201A205131094109D6
:10210000510956954795379527952093B800DF914B
:10211000CF911F910F91FF90EF90DF90CF90BF90E4
:10212000AF909F908F9008959D9191938F5F45CF31
:1021300085EE81CF8091F5019091F601A091F70194
:10214000B091F801892B8A2B8B2B09F47ACF0E944E
:1021500002050091F5011091F6012091F7013091EF
:10216000F8016C197D098E099F09061717072807C2
:10217000390708F066CFA8CFEDA5FEA590818BA901
:102180008095892380838B8D9C8D892B39F01EBD92
:1021900000000DB407FEFDCF8EB5A0CF28E030E0E3
:1021A00090E8E9A5FAA589A9412F4923A9F0408122
:1021B000842B8083EBA5FCA580814AA9842B808396
:1021C000EBA5FCA540818AA9809584238083969500
:1021D0002150310931F782CF408180958423E9CFA6
:1021E000EFA5F8A980819CA9892B808390CF2091AD
:1021F000AA01260F3327331F21323105ECF4209139
:10220000F301FC0190E080E0243069F082E0089561
:10221000A091AA012191AC0146575E4FA40FB52FA2
:10222000B11D2C930196861798F38091AA01680F2F
:102230006093AA0180E0089581E008958FEF9FEFF9
:1022400008958FEF9FEF08958091880190E0919518
:10225000819591090895CF92DF92EF92FF920F93AB
:102260001F93CF93DF937C01CB018A012091F90169
:10227000222389F0EB016B01C40ED51ECC15DD05C0
:1022800069F06991D701ED91FC910190F081E02D09
:10229000C7010995F3CF642F0E94F710C801DF91A1
:1022A000CF911F910F91FF90EF90DF90CF90089505
:1022B000CF93DF931F92CDB7DEB769832091F901E9
:1022C0002223F9F020911C02203258F021E030E066
:1022D000FC013383228390E080E00F90DF91CF9167
:1022E00008958091FA01E82FF0E0E550FE4F9981C2
:1022F00090838F5F8093FA0180931C0281E090E0CD
:10230000ECCF61E0CE0101960E94F710F7CF90E08C
:1023100080E00895880F982F20E0992329F0392F25
:102320003170230F9695F9CF20FF81600895CF92E9
:10233000DF92EF92FF920F931F93CF93DF93E82EDC
:1023400061E084E00E94D10408E010E080E8F82E0B
:1023500093E2C92ED12CCBECD2E06E2D6F2187E019
:102360000E94A304C6010197F1F761E084E00E9496
:10237000A304CE010197F1F760E084E00E94A3047A
:10238000CE010197F1F7F6940150110931F78BEA6C
:1023900094E00197F1F760E087E00E94D104219773
:1023A000F1F760E084E00E94D1048BE891E00197AE
:1023B000F1F70E9402056B017C0184E00E947A041F
:1023C000892BA1F40E9402056C197D098E099F09D1
:1023D000693873418105910580F3DF91CF911F9199
:1023E0000F91FF90EF90DF90CF9008958BEA94E0EB
:1023F0000197F1F761E084E00E94D10460E084E09D
:102400000E94A30487E00E947A04892BD9F361E03B
:1024100087E0DF91CF911F910F91FF90EF90DF90B8
:10242000CF900C94D104FC0101900020E9F7319782
:10243000AF01481B590BBC0186E892E00C942406BE
:10244000CF93DF930E94BF06EC018AE691E00E94E1
:1024500013128C0F9D1FDF91CF910895CF93DF93BF
:102460000E941312EC018AE691E00E9413128C0F75
:102470009D1FDF91CF910895CF92DF92EF92FF924F
:102480000F931F93CF93DF930E945905009182020F
:102490001091830220918402309185026B017C01AE
:1024A000C01AD10AE20AF30A9701860108381341DB
:1024B00021053105A0F0609382027093830280931E
:1024C0008402909385028DED96E00E94BF0689E616
:1024D00093E00E9413128BED96E00E94201260E0C0
:1024E00087E00E94D10460E085E00E94A3048BE8AD
:1024F00091E00197F1F70E9402056B017C0187E0F2
:102500000E947A04019711F50E9402056C197D0959
:102510008E099F09693873418105910580F361E057
:1025200085E00E94A30480918102882309F48EC073
:102530001092810280EC96E0DF91CF911F910F9174
:10254000FF90EF90DF90CF900C94201261E085E037
:102550000E94A3048BE891E00197F1F70E94020525
:102560006B017C0187E00E947A04892B61F40E9450
:1025700002056C197D098E099F096938734181052F
:10258000910580F3D0CF61E087E00E94D10461E043
:1025900084E00E94D10460E087E00E94A304CBE8BD
:1025A000D1E0CE010197F1F760E084E00E94A3043E
:1025B0002197F1F780918102811107C081E080931A
:1025C00081028BEC96E00E9420128BE90E94971109
:1025D00060E085E00E94A30480E00E948A11C82F79
:1025E0000E9497118C2F0E9497118C2F0E94971197
:1025F000C9E6D3E003E713E08991811101C080E2CD
:102600000E948A110E9497110C171D07A9F760E01C
:1026100087E00E94A3048BE99FE00197F1F761E056
:1026200085E00E94A3048BEC97E00197F1F761E04D
:1026300084E00E94A304CBE1D3E0CE010197F1F73F
:1026400061E087E00E94A3042197F1F7DF91CF9129
:102650001F910F91FF90EF90DF90CF9008954FE37F
:1026600050E0BC0182E293E00E94961BE2E2F3E0BC
:1026700017AE01900020E9F7E352F340E0936203C4
:10268000109263030E94590560936403709365037D
:10269000809366039093670381E0809368030E94B0
:1026A000A2030C943C120E94811B85ED8093BC0018
:1026B0008091F5019091F601A091F701B091F80198
:1026C0000796A11DB11D23E0B695A795979587950F
:1026D0002A95D1F72091BC0024FD03C01092F3018C
:1026E00008954091F5015091F6016091F7017091C4
:1026F000F801452B462B472B69F30097A105B1053F
:1027000041F02AE22A95F1F700C00197A109B10929
:10271000E1CF8091F4010C94310FCF93DF93CDB7CB
:10272000DEB7C054D1090FB6F894DEBF0FBECDBFDF
:102730006CEA70E0CE0101960E94051ACE01019666
:102740000E942F13C05CDF4F0FB6F894DEBF0FBEA0
:10275000CDBFDF91CF9108951F920F920FB60F92C8
:1027600011242F933F938F939F93AF93BF938091A7
:102770006B0290916C02A0916D02B0916E0230914B
:102780006A0223E0230F2D3758F50196A11DB11DD4
:1027900020936A0280936B0290936C02A0936D0267
:1027A000B0936E0280916F0290917002A0917102BD
:1027B000B09172020196A11DB11D80936F0290939A
:1027C0007002A0937102B0937202BF91AF919F917A
:1027D0008F913F912F910F900FBE0F901F901895E2
:1027E00026E8230F0296A11DB11DD2CF1F920F9292
:1027F0000FB60F9211248F939F938091E1009091D7
:10280000E100937F9093E10083FF0FC01092E900F5
:1028100091E09093EB001092EC0092E39093ED0026
:102820001092800298E09093F00082FF22C093E023
:102830009093E9009091F200992319F09AE3909314
:10284000E80090912202992341F090912202915048
:1028500090932202911101C05D9890917F0299237B
:1028600041F090917F02915090937F02911101C0AD
:10287000289884FF18C08091E2008E7E816080934A
:10288000E2008091E1008F7E8093E100809123023D
:102890008E7E8061809323029F918F910F900FBE57
:1028A0000F901F90189580FFF7CF8091E2008E7EE9
:1028B00080618093E2008091E1008E7E8093E10050
:1028C000809123028E7E8160E5CF1F920F920FB61A
:1028D0000F921124CF92DF92EF92FF920F931F93EA
:1028E0002F933F934F935F936F937F938F939F9318
:1028F000AF93BF93EF93FF93CF93DF93CDB7DEB743
:102900006C97DEBFCDBF1092E9008091E80083FF95
:1029100025C068E0CE0145960E94EA0582EF8093CB
:10292000E8008D8987FF39C09091E80090FFFCCFC7
:10293000982F907609F034C19E894F89588D2F8940
:10294000F88C911131C0803861F580912402809318
:10295000F1001092F1008EEF8093E8006C960FB6B4
:10296000F894DEBF0FBECDBFDF91CF91FF91EF9105
:10297000BF91AF919F918F917F916F915F914F9197
:102980003F912F911F910F91FF90EF90DF90CF908B
:102990000F900FBE0F901F9018959EEF9093E80038
:1029A000C7CF1092F100D5CF913059F48111D3CF18
:1029B0004130510581F6809124028D7F809324025D
:1029C000CACF933049F48111C6CF4130510519F671
:1029D000809124028260F2CF953041F48091E8002A
:1029E00080FFFCCF20682093E300B5CF963009F03C
:1029F000A9C00B8D1C8D22E01092E90010922002DC
:102A000010921F02F2122EC010921E0210921D028E
:102A10000E94B9051F8299E09983FA8291E09E8312
:102A200090EA98879AEF998720911F0230912002AF
:102A3000275F3F4F3C832B838D831092E9001092D8
:102A4000200210921F0210931E0200931D0249E003
:102A500050E0BE016F5F7F4F80E00E9493050E94AF
:102A6000B90579CF10931E0200931D020E941A042B
:102A7000DC0112960D911C910115110509F451C14B
:102A8000D801ED91FC910480F581E02DBE016B5ED3
:102A90007F4FC8010995009709F03EC1F8010085F4
:102AA0001185EACFF3E0FF120EC08F89882309F465
:102AB00040C0823061F440E86DE08BE296E00E9415
:102AC000B217811148CF81E28093EB0047CF81306C
:102AD00029F440E86BE08FE196E0F1CF833099F77D
:102AE0000E941A04DC011296ED90FC908E010F5F9B
:102AF0001F4F6801E114F10479F0D701ED91FC91C9
:102B00000680F781E02DB801C7010995080F111D56
:102B1000F701E084F184EECFD8011C92F601019018
:102B20000020E9F73197BF016C197D0940E0C6012B
:102B3000C6CF69E076E0FB01449150E080E80E9456
:102B4000930509CF973009F4BECF983021F481E086
:102B50008093F10000CF993009F0FDCE837009F029
:102B6000B2CFE4E1F1E081E031E096E3219122236C
:102B700071F08093E9003093EB00DF0111972C9105
:102B80002093EC009093ED008F5F873079F78EE70C
:102B90008093EA001092EA008F8980938002DBCE56
:102BA0008B8D9C8D1092E9001092200210921F02D2
:102BB00090931E0280931D02898D811192C08E898F
:102BC0009D89913A49F4813209F07DCF47E050E088
:102BD00064E071E080E0B3CF913209F074CF8332CA
:102BE00069F48F89988DB0E0A0E080930001909304
:102BF0000101A0930201B0930301ADCE803269F4CC
:102C00008091E80082FFFCCF67E084E091E00E94C1
:102C1000EA058BEF8093E8009ECE823209F09BCECE
:102C20008F8980930B01EEEFFFE7859194918B3FA5
:102C30009C4D51F1E0E0F8E0809104019091050194
:102C4000A0910601B0910701803B9440A105B10518
:102C5000F1F480910B0180FD1AC0EE3F8AE0F80785
:102C600089F587E797E7918380838091600080935F
:102C7000210288E19BE00FB6F894A895809360004C
:102C80000FBE9093600067CEEEEFFAE0D5CF808163
:102C900091818737974709F05ECEA89580916000B3
:102CA0008861809360008091210280936000EE3FF4
:102CB0002AE0F20789F08091FE0A9091FF0A918341
:102CC000808349CE808191818737980751F2909314
:102CD000FF0A8093FE0AC5CF1092FF0A1092FE0AE7
:102CE0003ACE0E941A04DC0112960D911C91011536
:102CF000110509F4E8CED801ED91FC910190F08125
:102D0000E02DBE016B5E7F4FC8010995811123CE76
:102D1000F80100851185EBCF181619060CF41BCEAF
:102D2000D2CEF1E0FF12BECE6DE076E004CF1F926E
:102D30000F920FB60F9211242F933F934F935F93EF
:102D40006F937F938F939F93AF93BF93EF93FF9373
:102D50008091B900887F803609F44AC0F0F5883246
:102D600009F4A5C018F5803109F499C0B8F4882396
:102D700009F4F5C0883009F492C0FF91EF91BF913A
:102D8000AF919F918F917F916F915F914F913F9103
:102D90002F910F900FBE0F901F901895883109F456
:102DA00086C0803251F78093F10114C0803409F459
:102DB0009BC040F48033B9F38833F9F68093F10176
:102DC00085ECAEC0803509F483C0883509F494C021
:102DD000883499F60E945513D0CF883909F48AC0F7
:102DE00038F5883729F050F4883611F0803729F605
:102DF00083E08093F3011092CC0155C0883809F428
:102E000079C0803919F0803809F0B7CF8091CC01B2
:102E1000803208F06FC0E091CC0181E08E0F80938A
:102E2000CC018091BB00F0E0E455FE4F80833BC0B5
:102E3000803B39F0D0F4803A09F477C0883A09F041
:102E40009CCF84E08093F3011092AB011092AA0111
:102E5000F0E0E0E009958091AA0181110FC081E0C6
:102E60008093AA0110928A0109C0803C09F4A8CF7E
:102E7000883C09F4A5CF883B09F07FCFE091AB01F6
:102E800081E08E0F8093AB01F0E0E657FE4F80812A
:102E90008093BB009091AB018091AA0129C08091E1
:102EA000CE018093BB0085EC8093BC0066CF9091EF
:102EB000F0018091EF01981758F5E091F00181E061
:102EC0008E0F8093F001F0E0E153FE4F8081E9CF57
:102ED000E091F00181E08E0F8093F0018091BB00C2
:102EE000F0E0E153FE4F80839091F0018091EF017B
:102EF0009817C8F285E8D8CFE091F00181E08E0FF5
:102F00008093F0018091BB00F0E0E153FE4F80839D
:102F10008091F20181115ECF81E08093CD0184EA3E
:102F20008093BC001092F30128CF85EC8093BC0005
:102F30001092F3018091CC01803230F4E091CC0109
:102F4000F0E0E455FE4F10826091CC0170E08CEA15
:102F500091E0F0E0E0E009951092CC010ECF1092E4
:102F6000F10138CFEF92FF920F931F93CF93DF932E
:102F7000F82E192FE62E042F81E0860F880F0E946D
:102F8000650583E00E946505CF2DD12FEC0EFD2E47
:102F9000F11CCE15DF05B9F007FF13C0FE018491C7
:102FA0000E946505182F80E00E9465058123219607
:102FB0008111EFCFDF91CF911F910F91FF90EF9093
:102FC00008958881EDCF81E0F5CFE6E8F2E0138245
:102FD000128248EE53E060E070E0448355836683DC
:102FE00077838EE191E0918380832FEF3FEF3587E8
:102FF0002487A6EDB2E013961C921E9212971496A7
:103000004D935D936D937C93179780E391E01196B8
:103010009C938E93E2EEF2E01382128240E850E03D
:103020005583448380E490E097838683518740876B
:1030300093878287168A158614861786168681E0FE
:10304000858B848B338B228B318B208B878B108EDF
:10305000128E118E82E491E091838083148E138E00
:10306000B68FA58F10A2178E8FEF84A385A386A39A
:1030700087A380A780E89AE1A6E0B0E085AB96AB95
:10308000A7ABB0AF80EA96E8A1E0B0E081AF92AF25
:10309000A3AFB4AF80E586AF17AE10926203109273
:1030A00063031092640310926503109266031092FA
:1030B000670310926803E2E2F3E080E4DF011D920F
:1030C0008A95E9F74AE050E060E270E089E693E033
:1030D0000E94861B109273030895789484B58260D1
:1030E00084BD84B5816084BD85B5826085BD85B5AC
:1030F000816085BD80916E00816080936E0010922A
:1031000081008091810082608093810080918100A4
:103110008160809381008091800081608093800035
:1031200080919100826080939100809191008160F4
:1031300080939100809190008160809390008091B5
:10314000C10084608093C1008091C100826080933F
:10315000C1008091C10081608093C1008091C30053
:1031600081608093C3008091C00082608093C00022
:103170008091C20081608093C20080917A00846057
:1031800080937A0080917A00826080937A008091A7
:103190007A00816080937A0080917A0080688093C1
:1031A0007A001092800210922402109223028091E1
:1031B000D70081608093D70080EA8093D80089B5DA
:1031C000806189BD89B5826089BD09B400FEFDCFEB
:1031D00061E070E080E090E00E9427058091D800D7
:1031E0008F7C80618093D8008091E000807F809305
:1031F000E0008091E1008E7E8093E1008DE080937D
:10320000E200559A209A5D9828988FEF9FEF90934F
:1032100093028093920261E088E00E94D10460E012
:1032200088E00E94A30461E085E00E94D10461E08F
:1032300087E00E94D10461E084E00E94D10461E053
:1032400085E00E94A30461E087E00E94A30461E09E
:1032500084E00E94A30461E088E00E94A30464EF7C
:1032600071E080E090E00E9427050E948D13C0E08D
:10327000D0E011E086E892E00E942B07892B09F448
:1032800047C086E892E00E94E906E09169028A3030
:1032900011F08D3089F5EE2369F3F0E0E75DFD4F25
:1032A00010826DE671E089E292E00E948D1B892B0D
:1032B00039F485E791E00E942E1210926902DACF6C
:1032C0006BE771E089E292E00E948D1B892B69F423
:1032D0000E9459056093250270932602809327026D
:1032E0009093280285E891E0E6CF89E292E00E947F
:1032F0002F1310920C01ECCFEF3308F0BBCF91E00D
:103300009E0F90936902F0E0E75DFD4F8083B2CF9E
:103310000E94590520910C01211115C0C090250271
:10332000D0902602E0902702F09028026C197D09C7
:103330008E099F09603375478105910520F0109330
:103340000C010E948D130E945905209168033CEDE9
:10335000C32E35E0D32EE12CF12C211106C024EF31
:10336000C22EDD24D394E12CF12C409162034B302A
:1033700078F18090640390906503A0906603B0900C
:1033800067032B013C01481859086A087B08530160
:1033900042018C149D04AE04BF04D0F0609364031A
:1033A0007093650380936603909367032091630392
:1033B00030E02F5F3F4F642F70E06E5F7F4FC90199
:1033C0000E940C1A80936303109268030E94A20368
:1033D0000E943C126AE070E080E090E00E942705C5
:1033E000209709F447CF0E94000044CF82E491E087
:1033F0009093E3028093E202809101039091020393
:10340000009711F00C94F81A0895FB01DC01059067
:103410000D920020E1F7089597FB072E16F4009413
:1034200007D077FD09D00E94481A07FC05D03EF46A
:10343000909581959F4F0895709561957F4F089560
:10344000A1E21A2EAA1BBB1BFD010DC0AA1FBB1FA8
:10345000EE1FFF1FA217B307E407F50720F0A21B1A
:10346000B30BE40BF50B661F771F881F991F1A9487
:1034700069F760957095809590959B01AC01BD01B1
:10348000CF010895EE0FFF1F0590F491E02D0994F0
:10349000AA1BBB1B51E107C0AA1FBB1FA617B7077A
:1034A00010F0A61BB70B881F991F5A95A9F7809596
:1034B0009095BC01CD0108950F931F93CF93DF9397
:1034C0008230910510F482E090E0E0917603F09173
:1034D000770330E020E0B0E0A0E0309799F42115C8
:1034E000310509F44AC0281B390B24303105D8F5C1
:1034F0008A819B816115710589F1FB019383828328
:10350000FE0111C040815181028113814817590782
:10351000E0F04817590799F4109761F012960C9350
:10352000129713961C933296CF01DF91CF911F9182
:103530000F9108950093760310937703F4CF21152C
:10354000310551F04217530738F0A901DB019A0108
:10355000BD01DF01F801C1CFEF01F9CF90937703EF
:1035600080937603CDCFFE01E20FF31F81939193F9
:103570002250310939832883D7CF209174033091A9
:103580007503232B41F420910F01309110013093EA
:1035900075032093740320910D0130910E012115C4
:1035A000310541F42DB73EB7409111015091120100
:1035B000241B350BE0917403F0917503E217F307B8
:1035C000A0F42E1B3F0B2817390778F0AC014E5F93
:1035D0005F4F2417350748F04E0F5F1F5093750358
:1035E00040937403819391939FCFF0E0E0E09CCFF0
:1035F000CF93DF930097E9F0FC0132971382128298
:10360000A0917603B0917703ED0130E020E01097B0
:10361000A1F420813181820F931F20917403309196
:1036200075032817390709F061C0F0937503E0931B
:103630007403DF91CF910895EA01CE17DF07E8F513
:103640004A815B819E0141155105B1F7E901FB8378
:10365000EA8349915991C40FD51FEC17FD0761F416
:10366000808191810296840F951FE9019983888357
:10367000828193819B838A83F0E0E0E012968D91B2
:103680009C9113970097B9F52D913C911197CD011D
:103690000296820F931F20917403309175032817AF
:1036A000390739F6309751F5109277031092760367
:1036B000B0937503A0937403BCCFD383C2834081BE
:1036C0005181840F951FC817D90761F44E5F5F4F72
:1036D00088819981480F591F518340838A819B813A
:1036E000938382832115310509F0B0CFF0937703DE
:1036F000E09376039ECFFD01DC01C0CF13821282DE
:10370000D7CF81E090E0F8940C94A51BDC0101C0B8
:103710006D9341505040E0F70895FB01DC018D911D
:10372000019080190110D9F3990B0895FB01DC0178
:103730004150504048F001900D920020C9F701C05F
:103740001D9241505040E0F7089513E0C7E7D3E0E1
:1037500004C0FE010E94421A2196C837D107C9F75A
:04376000F894FFCF0B
:10376400FFFFFFFF00E100000000000001000078FF
:1037740003800000C1808100000000000000A90651
:103784002406E506DA062B07E90607070000000011
:1037940058112B118711530E241121111E110000F1
:1037A4000000D60BF7058711300FEC08530E7C0E82
:1037B400540E700E640E830E530E9C09700F5C0839
:1037C400A5089C0D7F0D070DA80C0D0A00766572E7
:1037D40073696F6E00312E352E32006B6565706132
:0837E4006C697665006F6B0053
:00000001FF
