:100000000C948C000C94B4000C94B4000C94B400C8
:100010000C94B4000C94B4000C94B4000C94B40090
:100020000C94B4000C94B4000C94B4000C94B40080
:100030000C94B4000C94B4000C94B4000C94B40070
:100040000C94C5040C94B4000C9435050C940F0565
:100050000C94B4000C94B4000C94B4000C94B40050
:100060000C94B4000C94B4005B646961675D205427
:10007000494420646961676E6F73746963206669BF
:10008000726D776172652072756E6E696E670000C1
:10009000000000240027002A00000000002500289E
:1000A000002B0000000000230026002900040404A7
:1000B0000404040404020202020202030303030311
:1000C00003010204081020408001020408102001EE
:1000D00002040810200000000800020100000304D0
:1000E0000700000000000000005B5449445D206CE4
:1000F0006F7374005B5449445D20636F6E6E65637B
:100100007465640022005B5449445D206672616D31
:10011000653A20220000670511241FBECFEFD8E00A
:10012000DEBFCDBF11E0A0E0B1E0EAE5FEE002C035
:1001300005900D92AE31B107D9F722E0AEE1B1E002
:1001400001C01D92AB31B207E1F710E0CCE8D0E07E
:1001500004C02197FE010E940F07CB38D107C9F7D1
:100160000E94B3050C942B070C9400000F931F936F
:10017000CF93DF93409109024B30A8F4E0E1F2E025
:1001800080E090E2841720F4DF01A754B1099C912C
:1001900091938F5F8A30A9F710921A02DF91CF9165
:1001A0001F910F910895C0910A0200E112E0F0E062
:1001B000E0E0D0E022E0240F30E0CE018E0F9F1F60
:1001C000B9010E94E706841760F487539E4FDC0153
:1001D0008C91D8018D938D013196EA30F10569F744
:1001E000DBCF80E2F6CF833081F028F4813099F0C4
:1001F0008230A9F008958730A9F08830C9F08430A2
:10020000B1F4809180008F7D03C0809180008F7752
:1002100080938000089584B58F7784BD089584B558
:100220008F7DFBCF8091B0008F778093B0000895D1
:100230008091B0008F7DF9CFCF93DF93282F30E0EE
:10024000F901EB52FF4F8491F901EF53FF4FD49125
:10025000F901E355FF4FC491CC23A1F081110E9415
:10026000F300EC2FF0E0EE0FFF1FED55FF4FA591CF
:10027000B491EC91ED2381E090E009F480E0DF910E
:10028000CF91089580E090E0FACF1F93CF93DF9352
:10029000282F30E0F901EB52FF4F8491F901EF5321
:1002A000FF4FD491F901E355FF4FC491CC23A9F03E
:1002B000162F81110E94F300EC2FF0E0EE0FFF1FCC
:1002C000E756FF4FA591B4918FB7F894EC911111B7
:1002D00008C0D095DE23DC938FBFDF91CF911F91B3
:1002E0000895DE2BF8CFCF93DF9390E0FC01EF531E
:1002F000FF4F249183559F4FFC0184918823D1F0B7
:1003000090E0880F991FFC01E157FF4FA591B49130
:10031000FC01E756FF4FC591D49161110EC09FB704
:10032000F8948C91E22FE0958E238C932881E22320
:10033000E8839FBFDF91CF9108958FB7F894EC9138
:10034000E22BEC938FBFF6CF3FB7F89480911F015B
:1003500090912001A0912101B091220126B5A89B86
:1003600005C02F3F19F00196A11DB11D3FBFBA2F47
:10037000A92F982F8827BC01CD01620F711D811D07
:10038000911D42E0660F771F881F991F4A95D1F78C
:1003900008958F929F92AF92BF92CF92DF92EF9289
:1003A000FF924B015C010E94A4016B017C010E9441
:1003B000A4016C197D098E099F09683E734081056F
:1003C0009105A8F321E0821A9108A108B10888EEEE
:1003D000C80E83E0D81EE11CF11C81149104A10415
:1003E000B10429F7FF90EF90DF90CF90BF90AF90CE
:1003F0009F908F900895AF92BF92CF92DF92EF922D
:10040000FF920F931F93CF93DF936C017B018B01BE
:10041000040F151FEB015E01AE18BF08C017D1070E
:1004200059F06991D601ED91FC910190F081E02D98
:10043000C6010995892B79F7C501DF91CF911F91ED
:100440000F91FF90EF90DF90CF90BF90AF90089505
:10045000FC01538D448D252F30E0842F90E0821BCA
:10046000930B541710F0CF96089501970895FC014F
:10047000918D828D981761F0A28DAE0FBF2FB11DA7
:100480005D968C91928D9F5F9F73928F90E00895FF
:100490008FEF9FEF0895FC01918D828D981731F0B9
:1004A000828DE80FF11D858D90E008958FEF9FEF0D
:1004B0000895FC01918D228D892F90E0805C9F4FE3
:1004C000821B91098F73992708958CE291E00E9415
:1004D000590221E0892B09F420E0822F089580E061
:1004E00090E0892B29F00E94650281110C94000094
:1004F0000895FC01A48DA80FB92FB11DA35ABF4FB9
:100500002C91848D90E001968F739927848FA68912
:10051000B7892C93A089B1898C91837080648C9366
:10052000938D848D981306C00288F389E02D808115
:100530008F7D80830895EF92FF920F931F93CF9347
:10054000DF93EC0181E0888F9B8D8C8D98131AC00E
:10055000E889F989808185FF15C09FB7F894EE89F5
:10056000FF896083E889F989808183708064808352
:100570009FBF81E090E0DF91CF911F910F91FF909D
:10058000EF900895F62E0B8D10E00F5F1F4F0F7345
:100590001127E02E8C8D8E110CC00FB607FCFACF00
:1005A000E889F989808185FFF5CFCE010E94790223
:1005B000F1CFEB8DEC0FFD2FF11DE35AFF4FF082D1
:1005C0009FB7F8940B8FEA89FB8980818062CFCF37
:1005D0000F931F93CF93DF938C01D0E0C0E0F8011D
:1005E000EC0FFD1F6491662341F08CE291E00E94C4
:1005F0009B02892B11F02196F2CFCE01DF91CF9192
:100600001F910F910895CF93DF93EC01888D88237C
:10061000B9F0AA89BB89E889F9898C9185FD03C065
:10062000808186FD0DC00FB607FCF7CF8C9185FF4A
:10063000F2CF808185FFEDCFCE010E947902E9CF14
:10064000DF91CF910895880F982F20E0992329F00A
:10065000392F3170230F9695F9CF20FF81600895CF
:10066000CF92DF92EF92FF920F931F93CF93DF937E
:10067000E82E61E084E00E94730108E010E080E869
:10068000F82E93E2C92ED12CCBECD2E06E2D6F2147
:1006900087E00E944501C6010197F1F761E084E01F
:1006A0000E944501CE010197F1F760E084E00E94CD
:1006B0004501CE010197F1F7F6940150110931F788
:1006C0008BEA94E00197F1F760E087E00E94730104
:1006D0002197F1F760E084E00E9473018BE891E0DC
:1006E0000197F1F70E94A4016B017C0184E00E9454
:1006F0001C01892BA1F40E94A4016C197D098E09AB
:100700009F09693873418105910580F3DF91CF918D
:100710001F910F91FF90EF90DF90CF9008958BEA9B
:1007200094E00197F1F761E084E00E94730160E0DA
:1007300084E00E94450187E00E941C01892BD9F3C7
:1007400061E087E0DF91CF911F910F91FF90EF90D3
:10075000DF90CF900C947301CF93DF930E94E80257
:10076000EC0142E050E062E171E08CE291E00E9435
:10077000FB018C0F9D1FDF91CF910895CF92DF92E7
:10078000EF92FF920F931F93CF93DF932FB7F894BD
:100790008091240190912501A0912601B09127011B
:1007A0002FBF409128015091290160912A01709139
:1007B0002B018C019D01041B150B260B370BB90176
:1007C000A8014838534161057105F8F0809328016C
:1007D00090932901A0932A01B0932B0186E091E028
:1007E0000E94E80240E152E0FA0101900020E9F79E
:1007F000AF014151524060E172E08CE291E00E9411
:10080000FB0184E091E00E94AC0360E087E00E947D
:10081000730160E085E00E9445018BE891E001975B
:10082000F1F70E94A4016B017C0187E00E941C018A
:10083000019711F50E94A4016C197D098E099F0989
:10084000693873418105910580F361E085E00E947C
:10085000450180912301882309F48EC01092230161
:1008600089EE90E0DF91CF911F910F91FF90EF9073
:10087000DF90CF900C94AC0361E085E00E944501CD
:100880008BE891E00197F1F70E94A4016B017C01D4
:1008900087E00E941C01892B61F40E94A4016C195D
:1008A0007D098E099F09693873418105910580F39F
:1008B000D0CF61E087E00E94730161E084E00E9494
:1008C000730160E087E00E944501CBE8D1E0CE01F2
:1008D0000197F1F760E084E00E9445012197F1F76C
:1008E00080912301811107C081E08093230184EF6F
:1008F00090E00E94AC038BE90E94300360E085E049
:100900000E94450180E00E942303C82F0E9430030B
:100910008C2F0E9430038C2F0E943003C0E1D2E064
:100920000AE112E08991811101C080E20E94230353
:100930000E9430030C171D07A9F760E087E00E94B2
:1009400045018BE99FE00197F1F761E085E00E94A6
:1009500045018BEC97E00197F1F761E084E00E949C
:100960004501CBE1D3E0CE010197F1F761E087E0EB
:100970000E9445012197F1F7DF91CF911F910F91CF
:10098000FF90EF90DF90CF9008951F920F920FB6D7
:100990000F9211242F933F938F939F93AF93BF9305
:1009A0008091240190912501A0912601B091270109
:1009B00030911E0123E0230F2D3758F50196A11D1C
:1009C000B11D20931E018093240190932501A093D3
:1009D0002601B093270180911F0190912001A091E1
:1009E0002101B09122010196A11DB11D80931F012B
:1009F00090932001A0932101B0932201BF91AF9168
:100A00009F918F913F912F910F900FBE0F901F904C
:100A1000189526E8230F0296A11DB11DD2CF1F9273
:100A20000F920FB60F9211242F933F934F935F9322
:100A30006F937F938F939F93AF93BF93EF93FF93A6
:100A40008CE291E00E947902FF91EF91BF91AF910A
:100A50009F918F917F916F915F914F913F912F91D6
:100A60000F900FBE0F901F9018951F920F920FB608
:100A70000F9211242F938F939F93EF93FF93E09105
:100A80003C01F0913D018081E0914201F0914301F0
:100A900082FD1BC09081809145018F5F8F732091F3
:100AA0004601821741F0E0914501F0E0E45DFE4F20
:100AB000958F80934501FF91EF919F918F912F9199
:100AC0000F900FBE0F901F9018958081F4CFECE22D
:100AD000F1E01382128288EE93E0A0E0B0E084831C
:100AE0009583A683B78384E091E09183808385EC2E
:100AF00090E09587848784EC90E09787868780ECE8
:100B000090E0918B808B81EC90E0938B828B82ECD8
:100B100090E0958B848B86EC90E0978B868B118E82
:100B2000128E138E148E1092090210920A021092E5
:100B30000B0210920C0210920D0210920E021092F3
:100B40000F02E9ECF1E080E4DF011D928A95E9F7FC
:100B50004AE050E060E270E080E192E00E94150718
:100B600010921A020895789484B5826084BD84B589
:100B7000816084BD85B5826085BD85B5816085BD98
:100B800080916E00816080936E0010928100809150
:100B900081008260809381008091810081608093D8
:100BA0008100809180008160809380008091B100FD
:100BB00084608093B1008091B00081608093B00028
:100BC00080917A00846080937A0080917A008260BC
:100BD00080937A0080917A00816080937A0080917E
:100BE0007A00806880937A001092C100E0913C0105
:100BF000F0913D0182E08083E0913801F09139016C
:100C00001082E0913A01F0913B018FEC80831092C9
:100C10004401E0914001F091410186E08083E09140
:100C20003E01F0913F01808180618083E0913E012F
:100C3000F0913F01808188608083E0913E01F091D6
:100C40003F01808180688083E0913E01F0913F0107
:100C500080818F7D808361E088E00E94730160E085
:100C600088E00E94450161E085E00E94730161E037
:100C700087E00E94730161E084E00E94730161E0FB
:100C800085E00E94450161E087E00E94450161E046
:100C900084E00E94450161E088E00E94450164EF24
:100CA00071E080E090E00E94C9014FE350E065E10F
:100CB00071E089EC91E00E941C071092080289EC17
:100CC00091E0FC0101900020E9F7CF018A5C91409E
:100CD0008093090210920A022FB7F89480912401A0
:100CE00090912501A0912601B09127012FBF8093FB
:100CF0000B0290930C02A0930D02B0930E0281E0C0
:100D000080930F020E94B6000E94BE0388E690E026
:100D10000E94AC03C0E0D0E02FB7F894809124018A
:100D200090912501A0912601B09127012FBF20911C
:100D30000F02211147C004EF11E020E030E0609184
:100D400009026B3060F1C0900B02D0900C02E09071
:100D50000D02F0900E024C015D018C189D08AE084A
:100D6000BF0875016401C016D106E206F306B8F0AB
:100D700080930B0290930C02A0930D02B0930E028D
:100D800080910A0290E0019670E06E5F7F4F0E94B2
:100D9000E70680930A0210920F020E94B6000E949A
:100DA000BE036AE070E080E090E00E94C9012097F5
:100DB00009F4B2CF0E946502882309F4ADCF0E94E6
:100DC0000000AACF0CED15E020E030E0B8CF97FB93
:100DD000072E16F4009407D077FD09D00E94FB0679
:100DE00007FC05D03EF4909581959F4F089570952E
:100DF00061957F4F0895AA1BBB1B51E107C0AA1F35
:100E0000BB1FA617B70710F0A61BB70B881F991FAB
:100E10005A95A9F780959095BC01CD010895EE0FE4
:100E2000FF1F0590F491E02D0994DC0101C06D9342
:100E300041505040E0F70895FB01DC014150504023
:100E400048F001900D920020C9F701C01D92415059
:0A0E50005040E0F70895F894FFCF3A
:100E5A00000000009B02FB0128020303590237022B
:0E0E6A004B020D0A0057616974696E67000043
:00000001FF
