:100000000C9407030C942F030C942F030C942F03D0
:100010000C942F030C942F030C942F030C942F0398
:100020000C942F030C942F030C942F030C942F0388
:100030000C942F030C942F030C942F030C942F0378
:100040000C9411120C942F030C9481120C945B12DB
:100050000C942F030C942F030C942F030C942F0358
:100060000C94B3120C942F034F70656C20436F7285
:1000700073610000000000003E5B4F5B3E3E6B4F33
:100080006B3E1C3E7C3E1C183C7E3C181C577D572A
:100090001C1C5E7F5E1C00183C1800FFE7C3E7FFD6
:1000A0000018241800FFE7DBE7FF30483A060E2669
:1000B00029792926407F050507407F05253F5A3CC1
:1000C000E73C5A7F3E1C1C08081C1C3E7F14227F04
:1000D00022145F5F005F5F06097F017F00668995DC
:1000E0006A606060606094A2FFA29408047E0408C5
:1000F00010207E201008082A1C08081C2A08081E48
:10010000101010100C1E0C1E0C30383E3830060E2D
:100110003E0E06000000000000005F000000070027
:100120000700147F147F14242A7F2A1223130864E3
:100130006236495620500008070300001C22410087
:100140000041221C002A1C7F1C2A08083E080800C7
:100150008070300008080808080000606000201067
:100160000804023E5149453E00427F400072494921
:1001700049462141494D331814127F102745454502
:10018000393C4A4949314121110907364949493623
:10019000464949291E0000140000004034000000B8
:1001A00008142241141414141400412214080201EA
:1001B0005909063E415D594E7C1211127C7F494916
:1001C00049363E414141227F4141413E7F494949B3
:1001D000417F090909013E414151737F0808087FA9
:1001E00000417F41002040413F017F081422417FB0
:1001F000404040407F021C027F7F0408107F3E4148
:1002000041413E7F090909063E4151215E7F09199E
:100210002946264949493203017F01033F404040B6
:100220003F1F2040201F3F4038403F6314081463A5
:1002300003047804036159494D43007F4141410261
:1002400004081020004141417F04020102044040A3
:10025000404040000307080020545478407F284461
:1002600044383844444428384444287F385454544B
:100270001800087E090218A4A49C787F080404785A
:1002800000447D40002040403D007F102844000095
:10029000417F40007C047804787C0804047838446A
:1002A000444438FC1824241818242418FC7C08041E
:1002B0000408485454542404043F44243C4040203F
:1002C0007C1C2040201C3C4030403C4428102844EA
:1002D0004C9090907C4464544C440008364100009B
:1002E00000770000004136080002010204023C26AB
:1002F00023263C1EA1A161123A4040207A38545472
:1003000055592155557941225454784221555478F4
:100310004020545579400C1E52721239555555598A
:10032000395454545939555454580000457C4100AF
:1003300002457D420001457C407D1211127DF0286E
:100340002528F07C545545002054547C547C0A09DF
:100350007F4932494949323A4444443A324A48484A
:10036000303A4141217A3A42402078009DA0A07D58
:100370003D4242423D3D4040403D3C24FF24244814
:100380007E4943662B2FFC2F2BFF0929F620C088BE
:100390007E090320545479410000447D413048488F
:1003A0004A32384040227A007A0A0A727D0D1931A9
:1003B0007D2629292F28262929292630484D402005
:1003C000380808080808080808382F10C8ACBA2FE1
:1003D000102834FA00007B000008142A142222148A
:1003E0002A14085500550055AA55AA55AAFF55FFCD
:1003F00055FF000000FF00101010FF00141414FF40
:10040000001010FF00FF1010F010F0141414FC0086
:100410001414F700FF0000FF00FF1414F404FC1490
:100420001417101F10101F101F1414141F00101089
:1004300010F0000000001F101010101F10101010FE
:10044000F010000000FF101010101010101010FF1E
:1004500010000000FF140000FF00FF00001F101735
:100460000000FC04F414141710171414F404F4001E
:1004700000FF00F714141414141414F700F71414E4
:1004800014171410101F101F141414F4141010F06B
:1004900010F000001F101F0000001F14000000FCDF
:1004A000140000F010F01010FF10FF141414FF14CB
:1004B0001010101F00000000F010FFFFFFFFFFF002
:1004C000F0F0F0F0FFFFFF0000000000FFFF0F0F53
:1004D0000F0F0F3844443844FC4A4A4A347E020223
:1004E0000606027E027E0263554941633844443C5D
:1004F00004407E201E2006027E020299A5E7A599EF
:100500001C2A492A1C4C7201724C304A4D4D303025
:1005100048784830BC625A463D3E494949007E0110
:1005200001017E2A2A2A2A2A44445F444440514A2F
:10053000444040444A51400000FF0103E080FF0076
:100540000008086B6B083612362436060F090F06B2
:10055000000018180000001010003040FF010100DA
:100560001F01011E00191D1712003C3C3C3C0000FD
:10057000000000000103070F1F3F7F0080C0E0F074
:10058000F8FCFE00000000240027002A0000000004
:1005900000250028002B0000000000230026002971
:1005A000000404040404040404020202020202031C
:1005B0000303030303010204081020408001020426
:1005C00008102001020408102000000008000201A9
:1005D000000003040700000000000000005B544915
:1005E000445D206C6F7374005B5449445D20636FFD
:1005F0006E6E65637465640022005B5449445D203F
:100600006672616D653A20220000CE13D815112460
:100610001FBECFEFD8E0DEBFCDBF11E0A0E0B1E05C
:10062000E8E2FFE202C005900D92A637B107D9F7C4
:1006300023E0A6E7B1E001C01D92AD39B207E1F7B2
:1006400013E0C6E0D3E004C02197FE010E943816F3
:10065000C530D107C9F70E9470140C9487170C9409
:1006600000000F931F93CF93DF93409187034B308C
:10067000A8F4EEE8F3E080E090E2841720F4DF01D4
:10068000A754B1099C9191938F5F8A30A9F710927A
:100690009803DF91CF911F910F910895C091880326
:1006A0000EE813E0F0E0E0E0D0E022E0240F30E0DC
:1006B000CE018E0F9F1FB9010E94EE15841760F4C2
:1006C000895B9C4FDC018C91D8018D938D01319613
:1006D000EA30F10569F7DBCF80E2F6CF833081F0B5
:1006E00028F4813099F08230A9F008958730A9F07C
:1006F0008830C9F08430B1F4809180008F7D03C0D0
:10070000809180008F7780938000089584B58F77E3
:1007100084BD089584B58F7DFBCF8091B0008F7725
:100720008093B00008958091B0008F7DF9CFCF9372
:10073000DF93282F30E0F901E753FA4F8491F90154
:10074000EB54FA4FD491F901EF55FA4FC491CC23F1
:10075000A1F081110E946E03EC2FF0E0EE0FFF1F5D
:10076000E956FA4FA591B491EC91ED2381E090E028
:1007700009F480E0DF91CF91089580E090E0FACF16
:100780001F93CF93DF93282F30E0F901E753FA4FFF
:100790008491F901EB54FA4FD491F901EF55FA4FD6
:1007A000C491CC23A9F0162F81110E946E03EC2F67
:1007B000F0E0EE0FFF1FE357FA4FA591B4918FB70A
:1007C000F894EC91111108C0D095DE23DC938FBF13
:1007D000DF91CF911F910895DE2BF8CFCF93DF9358
:1007E00090E0FC01EB54FA4F24918F559A4FFC0195
:1007F00084918823D1F090E0880F991FFC01ED5778
:10080000FA4FA591B491FC01E357FA4FC591D491E9
:1008100061110EC09FB7F8948C91E22FE0958E2362
:100820008C932881E223E8839FBFDF91CF910895C5
:100830008FB7F894EC91E22BEC938FBFF6CF3FB7D4
:10084000F8948091550290915602A0915702B09170
:10085000580226B5A89B05C02F3F19F00196A11D8F
:10086000B11D3FBFBA2FA92F982F8827BC01CD01FA
:10087000620F711D811D911D42E0660F771F881F59
:10088000991F4A95D1F708958F929F92AF92BF9288
:10089000CF92DF92EF92FF924B015C010E941F0406
:1008A0006B017C010E941F046C197D098E099F0950
:1008B000683E734081059105A8F321E0821A9108F2
:1008C000A108B10888EEC80E83E0D81EE11CF11C17
:1008D00081149104A104B10429F7FF90EF90DF90F7
:1008E000CF90BF90AF909F908F9008952FB7F894BE
:1008F0006091510270915202809153029091540282
:100900002FBF0895AF92BF92CF92DF92EF92FF92E6
:100910000F931F93CF93DF936C017B018B01040F27
:10092000151FEB015E01AE18BF08C017D10759F0C3
:100930006991D601ED91FC910190F081E02DC60105
:100940000995892B79F7C501DF91CF911F910F91FF
:10095000FF90EF90DF90CF90BF90AF900895FC0193
:10096000538D448D252F30E0842F90E0821B930B14
:10097000541710F0CF96089501970895FC01918DBA
:10098000828D981761F0A28DAE0FBF2FB11D5D96BD
:100990008C91928D9F5F9F73928F90E008958FEF5F
:1009A0009FEF0895FC01918D828D981731F0828D13
:1009B000E80FF11D858D90E008958FEF9FEF08956A
:1009C000FC01918D228D892F90E0805C9F4F821BCE
:1009D00091098F73992708958EE592E00E94E004B3
:1009E00021E0892B09F420E0822F089580E090E037
:1009F000892B29F00E94EC0481110C9400000895C9
:100A0000FC01A48DA80FB92FB11DA35ABF4F2C9183
:100A1000848D90E001968F739927848FA689B7897A
:100A20002C93A089B1898C91837080648C93938D71
:100A3000848D981306C00288F389E02D80818F7D14
:100A400080830895EF92FF920F931F93CF93DF93CC
:100A5000EC0181E0888F9B8D8C8D98131AC0E889FA
:100A6000F989808185FF15C09FB7F894EE89FF89C9
:100A70006083E889F98980818370806480839FBF67
:100A800081E090E0DF91CF911F910F91FF90EF9067
:100A90000895F62E0B8D10E00F5F1F4F0F73112777
:100AA000E02E8C8D8E110CC00FB607FCFACFE889B2
:100AB000F989808185FFF5CFCE010E940005F1CF35
:100AC000EB8DEC0FFD2FF11DE35AFF4FF0829FB726
:100AD000F8940B8FEA89FB8980818062CFCF0F93D6
:100AE0001F93CF93DF938C01D0E0C0E0F801EC0FAF
:100AF000FD1F6491662341F08EE592E00E9422057D
:100B0000892B11F02196F2CFCE01DF91CF911F9169
:100B10000F910895CF93DF93EC01888D8823B9F06E
:100B2000AA89BB89E889F9898C9185FD03C08081F8
:100B300086FD0DC00FB607FCF7CF8C9185FFF2CF75
:100B4000808185FFEDCFCE010E940005E9CFDF91C6
:100B5000CF910895EF92FF920F931F93CF93DF935E
:100B6000EC01EC80FD806E157F050CF070C057FF26
:100B700004C0240F351F50E040E08E819F81FA01B0
:100B8000E20FF31F8E179F071CF49C01241B350BEB
:100B9000121613060CF05BC0922F842F8695869553
:100BA00086958E9DD0018F9DB00D11246A0F7B1FFD
:100BB000AF8DB8A1A60FB71F477049F188E0841B1D
:100BC000482F682F70E0FB01E558FA4FE491281791
:100BD00008F063C0621B71092FEF30E002C0359549
:100BE00027956A95E2F7E2230130110539F0B0F15B
:100BF0000230110561F58C91E82702C08C91E82B39
:100C0000EC93941720F12C813D81A20FB31FE92FA3
:100C1000E41BE83078F00230110521F58E2F9C910D
:100C200090959C932C813D81A20FB31F88508830F2
:100C3000B0F7E770EE2359F0F0E0ED58FA4FE49189
:100C400001301105F9F010F10230110519F1DF91B1
:100C5000CF911F910F91FF90EF900895E0958C91A7
:100C6000E823CECF81E00115110509F480E08195DC
:100C70009E2F8C932C813D81A20FB31F98509830EA
:100C8000C0F7D7CF8C91E82BEC93E1CFE0958C9116
:100C9000E823FACF8C91E827F7CF0130110509F44A
:100CA000ADCFE0F20230110509F4A5CFAE0DBF1DA6
:100CB000AECF0F931F93CF93DF9377FF04C0260F20
:100CC000371F70E060E0DC011496CD91DC91FB01F0
:100CD000E20FF31FCE17DF071CF49E01261B370B14
:100CE000121613064CF5FA0157FD3796A3E0F59559
:100CF000E795AA95E1F7EC9FD001ED9FB00DFC9F21
:100D0000B00D11246A0F7B1FDC015F96ED91FC9101
:100D1000E60FF71F4770552781E090E001C0880F6C
:100D20004A95EAF7482F0130110559F0A8F02E0F27
:100D30003F1F02301105E1F0DF91CF911F910F911C
:100D400008952E0F3F1FE217F307B1F38191DF01E2
:100D50001197842B8C93F7CF80952E0F3F1FE217AE
:100D6000F30751F39191DF01119798239C93F7CFEB
:100D7000E217F30709F38191DF01119784278C9320
:100D8000F7CF0F931F93FA01DC0156964C915697BB
:100D90004230E9F04330A1F1413061F514964D91B4
:100DA0005C91DA01AE1BBF0BFD01E21BF30B77FD7B
:100DB0000BC0DC0116964D915C916417750724F405
:100DC000AB01BF010E9459061F910F91089514961F
:100DD0004D915C91DA01A61BB70BBD016150710901
:100DE000DC0116964D915C91DA01AE1BBF0BFD0143
:100DF000E21BF30B77FDE8CFAF010E94AA05E4CF19
:100E000016964D915C91DA01A61BB70BBD0161509E
:100E10007109CDCF0F931F93FA01DC0156964C91C7
:100E200056974230A9F0433091F1413019F51496AC
:100E30004D915C91DA01AE1BBF0BFD013197F7FDBF
:100E400004C0AB01BF010E94AA051F910F91089534
:100E500014964D915C91DA01A61BB70BBD01DC0124
:100E600016964D915C91DA01AE1BBF0BFD013197D7
:100E7000621B730BF7FDE9CFDC0116964D915C9177
:100E8000E417F50714F7AF010E945906DECF169656
:100E90004D915C91DA01A61BB70BBD01621B730B70
:100EA000CECFFC0177FD64C08085918568177907F6
:100EB0000CF05EC057FD5CC08285938548175907CA
:100EC0000CF056C086898230B1F0833029F1813030
:100ED00041F484819581841B950BAB01BC01615069
:100EE00071092130310509F108F443C02230310580
:100EF00009F463C0089584819581DC01A61BB70BBA
:100F0000BD016150710986819781DC01A41BB50B7D
:100F1000AD0141505109E5CF86819781861B970B22
:100F2000BA01AC0141505109DCCFCA0157FD079607
:100F3000A3E095958795AA95E1F7A481B5818A9F4D
:100F400090018B9F300D9A9F300D1124620F731FFB
:100F5000078CF0A1E02DE60FF71F4770552721E021
:100F600030E001C0220F4A95EAF78081822B80830E
:100F70000895CA0157FD079633E0959587953A95F0
:100F8000E1F7A481B5818A9F90018B9F300D9A9FD4
:100F9000300D1124620F731F078CF0A1E02DE60FB6
:100FA000F71F4770552781E090E001C0880F4A95F0
:100FB000EAF7809590818923DACFCA0157FD079619
:100FC00023E0959587952A95E1F7A481B5818A9FBD
:100FD00090018B9F300D9A9F300D1124620F731F6B
:100FE000078CF0A1E02DE60FF71F4770552721E091
:100FF00030E001C0220F4A95EAF780818227B7CFFF
:101000000895FC016370668B848195812681378108
:10101000613039F0633029F09187808733872287E8
:101020000895318720879387828708952F923F9272
:101030004F925F926F927F928F929F92AF92BF92E8
:10104000CF92DF92EF92FF920F931F93CF93DF9394
:10105000CDB7DEB76A970FB6F894DEBF0FBECDBF2F
:101060009A8F898F7A8369834A01D22E18870F83DA
:101070003701BC2CDC0159962D913C915A972115D2
:10108000310509F015C118968D919C911997681733
:1010900079070CF0D7C11A968D919C914817590782
:1010A0000CF0D0C14C2C512CB6E0CB9E600D711DC4
:1010B00011247C876B87161617060CF0C3C1EA2D26
:1010C000F0E0FA87E98793E0EE0FFF1F9A95E1F7CA
:1010D000F88BEF87CF01840F951F181619060CF0B7
:1010E000B1C1A98DBA8D58968C91811104C0BFEA07
:1010F000BD1508F4D394A98DBA8DED91FC9111978B
:101100000284F385E02DCD010995B5E0DB9EC00199
:101110001124E981FA81FC83EB83312C212C9C0181
:101120002D583F4F388F2F8B4A2D50E05E8B4D8BC3
:10113000EF89F88DE20DF31D44919E828D82D12CB2
:10114000C12C69817A81620D731D7A8B698B842F22
:1011500090E09C8B8B8BE98DFA8DA081B18140FF53
:1011600082C0F1E0BF126FC0AF126DC01C96ED914E
:10117000FC912F813885A4014C0D5D1D69897A8908
:10118000898D9A8D0995EB89FC89F595E7954E2F08
:101190005FEFC51AD50A6D817E818D899E89680FA2
:1011A000791F7E836D8398E0C916D10481F6AFEF75
:1011B0002A1A3A0AEB81FC81E40DF51DFC83EB83CE
:1011C000F5E02F16310409F0B3CF2F8138852615AD
:1011D0003705B9F0A98DBA8DED91FC91B1E0BB1244
:1011E00057C0AB1255C069817A816B5F7F4F008811
:1011F000F189E02D830128E030E0A401898D9A8DEA
:101200000995A98DBA8DED91FC9111970688F78902
:10121000E02DCD016A960FB6F894DEBF0FBECDBFAC
:10122000DF91CF911F910F91FF90EF90DF90CF90C2
:10123000BF90AF909F908F907F906F905F904F90F6
:101240003F902F9009941E96ED91FC91EF80F884C9
:1012500009851A8592014D815E816B817C81898D22
:101260009A8D099590CF2F8138852615370509F479
:101270008ACF31E0B31207C0A31205C01C96ED91CE
:10128000FC91930178CF1E96ED91FC917301E0CF14
:101290006B857C85641975090684F785E02D7301DB
:1012A0000F8518899201A401898D9A8D0995A9CF7E
:1012B000F90134969491329745915491D91AB7E037
:1012C000DB9E400D511D1124F901259134913C8B79
:1012D0002B8BFA0125903490FA0132967490319656
:1012E0003491398B329664903196449041E04C159C
:1012F00018F04A1508F07FC0662D062C000C770BFD
:101300007C836B83842D042C000C990B9E838D832E
:10131000A98DBA8DED91FC9111970284F385E02D92
:10132000CD010995512CD12CC12CEA2DF0E0FA8782
:10133000E9872B2D30E03C872B87A401440D511DFC
:1013400047FC5A95588F4F8B69817A81660D711DC4
:1013500067FC7A957E876D877989C71608F051CF2B
:101360002C2D30E04D815E81420F531FA985BA8537
:101370004A9FC0014B9F900D5A9F900D1124FC0174
:10138000E80DF91DF88BEF87852D612C4F89588D5D
:10139000420F531F5E8B4D8B671408F050C04424DE
:1013A0004394480E877041F4C1010196EB89FC8992
:1013B000E20DF31DD4901C01D7FE19C0A98DBA8D82
:1013C000ED91FC91662D70E0B1E0BB1219C0AB123B
:1013D00017C02D853E85620F731F0484F585E02DAF
:1013E0002F8138854D895E89898D9A8D0995DD0C0F
:1013F0006394842DD1CF1E821D821C821B8288CFD4
:101400004B815C81640F751FAB85BC856A9FC001F1
:101410006B9F900D7A9F900D112469817A81680FDE
:10142000791F0684F785E02DEF80F88409851A85F9
:101430009D014F855889898D9A8D0995D8CF570C74
:10144000C3948ACF6A960FB6F894DEBF0FBECDBFA5
:10145000DF91CF911F910F91FF90EF90DF90CF9090
:10146000BF90AF909F908F907F906F905F904F90C4
:101470003F902F9008958F929F92AF92CF92EF92CC
:10148000FF920F931F93CF93DF93EC01262F898D4B
:101490009A8D009709F051C06A30D1F41D861C86E0
:1014A0008D8948E0849F900111248E859F85820F4D
:1014B000931F9F878E8781E090E0DF91CF911F91EE
:1014C0000F91FF90EF90CF90AF909F908F900895E5
:1014D0006D3089F3CC88AD888F898823C1F08C85E5
:1014E0009D8536E0C39E800D911D11244885598548
:1014F0004817590764F44E855F851D861C8638E0C1
:10150000A39EC0011124840F951F9F878E87EA88B0
:10151000FB88088919894E855F856C857D85CE019C
:101520000E9416082C898C859D8546E0249F800D9D
:10153000911D11249D878C87BECF6A3069F41D866A
:101540001C86FC013896E4912D898E859F85E29F4B
:10155000800D911D1124ADCF6D3009F4ACCFFC018D
:1015600034963491631708F4A6CF3296E491E617C7
:1015700008F4A1CFFC01329685909490462F431B2E
:10158000342F47E0349F800C911C1124F4013296D3
:1015900034913196E4913323A9F1EE2399F1CC886B
:1015A000F4013596E491AD884F89442301F10E2E64
:1015B000000CFF0BE30FF11DCE9EA001CF9E500D3E
:1015C00011246C857D85460F571F688579856417C2
:1015D00075076CF44E855F851D861C86FC01389668
:1015E000E491AE9E400D511D11245F874E87EA881D
:1015F000FB88088919894E855F856C857D85CE01BC
:101600000E941608F4013496E4912C898C859D85FE
:10161000E29F800D911D11248DCF6F927F928F924A
:101620009F92AF92BF92CF92DF92EF92FF920F9371
:101630001F93CF93DF93EC016B015A0139014801ED
:10164000E881F9810284F385E02D0995E881F9812B
:101650000288F389E02D87019301A501B601CE012F
:101660000995A501480D591D41505109E881F9819D
:101670000288F389E02D9301B601CE010995E88136
:10168000F9810088F189E02D9401A501B601CE0110
:101690000995C60CD71CB60161507109E881F98122
:1016A0000088F189E02D9401A501CE010995E8811A
:1016B000F9810688F789E02DCE01DF91CF911F9146
:1016C0000F91FF90EF90DF90CF90BF90AF909F90E1
:1016D0008F907F906F9009946F927F928F929F92DC
:1016E000AF92BF92CF92DF92EF92FF920F931F9330
:1016F000CF93DF935C01EB016A0149013801870157
:10170000DC01ED91FC916217730719F564167506FB
:101710002CF0962D872D3A01C92ED82E9601261928
:1017200037092F5F3F4F048CF58DE02DA301BE01DB
:10173000C5010995DF91CF911F910F91FF90EF9017
:10174000DF90CF90BF90AF909F908F907F906F90E1
:1017500008954615570591F42617370724F0892D6B
:101760004B01C22FD82F9E01281939092F5F3F4FF7
:10177000068CF78DE02DA601B401DACF0284F38543
:10178000E02D0995D501ED91FC910488F589E02DB6
:1017900083019401A601BE01C5010995D501ED9112
:1017A000FC910688F789E02DC501DF91CF911F914B
:1017B0000F91FF90EF90DF90CF90BF90AF909F90F0
:1017C0008F907F906F900994EF92FF920F931F93E9
:1017D000DC011A960D911C911B9718962D913C9146
:1017E0001997ED91FC9100A0F1A1E02D7B0150E053
:1017F00040E070E060E009951F910F91FF90EF903D
:1018000008954F925F926F927F928F929F92AF92C4
:10181000BF92CF92DF92EF92FF920F931F93CF93DD
:10182000DF936C012B015A0139014801DC01ED9174
:10183000FC910284F385E02D0995E201640C751C8E
:10184000D601ED91FC91C615D7055CF40088F189AD
:10185000E02D87019401A501BE01C60109952196DD
:10186000EFCF0688F789E02DC601DF91CF911F9158
:101870000F91FF90EF90DF90CF90BF90AF909F902F
:101880008F907F906F905F904F9009948F929F926E
:10189000AF92BF92CF92DF92EF92FF920F931F937E
:1018A000CF93DF93EC015B014A016901E881F98183
:1018B0000284F385E02D099595012C0D3D1D2150E5
:1018C0003109E881F9810488F589E02D78018401E6
:1018D000A401B501CE010995E881F9810688F7894F
:1018E000E02DCE01DF91CF911F910F91FF90EF90EE
:1018F000DF90CF90BF90AF909F908F9009948F9280
:101900009F92AF92BF92CF92DF92EF92FF920F938E
:101910001F93CF93DF93EC015B014A0169017801CA
:10192000E881F9810284F385E02D0995C80CD91C62
:10193000860101501109E881F9810488F589E02DBB
:101940009501A401B501CE010995E881F9810688C8
:10195000F789E02DCE01DF91CF911F910F91FF907C
:10196000EF90DF90CF90BF90AF909F908F900994B1
:101970000895EF92FF920F931F93DC01ED91FC917C
:1019800000A0F1A1E02D09951F910F91FF90EF901C
:1019900008950F931F93DC01ED91FC91068CF78D58
:1019A000E02D09951F910F9108950F931F93DC016E
:1019B000ED91FC91048CF58DE02D09951F910F910F
:1019C0000895DC01ED91FC910084F185E02D0994EE
:1019D0002F923F924F925F926F927F928F929F923F
:1019E000AF92BF92CF92DF92EF92FF920F931F932D
:1019F000CF93DF9300D000D000D0CDB7DEB73C014D
:101A00006A013E832D83FC82EB825801A41AB50A39
:101A1000B7FE03C0B194A194B1088D809E80861A50
:101A2000970A97FE03C09194819491088A149B04AD
:101A30005CF0902F812F0D811E819D838E839C2DC4
:101A40008D2D6B01692F782F0C151D055CF09D8184
:101A50008E817E836D83692F782F902F812F860151
:101A6000C92ED82E1601201A310A2B012D813E8154
:101A7000421A530A57FE03C0519441945108710110
:101A800037FE03C03FEFE31AF30AF594E7948D8124
:101A90009E81861797075CF5A1E0B0E0BA83A98321
:101AA000C016D1064CF1D301ED91FC910484F5856B
:101AB000E02D2B813C81A8016D817E818A149B04DD
:101AC0001CF04D815E81B801C3010995E418F50849
:101AD000F7FE0AC02D813E8189819A81280F391F26
:101AE0003E832D83E20CF31C0F5F1F4FD9CF2FEFE6
:101AF0003FEF3A832983D4CF26960FB6F894DEBF02
:101B00000FBECDBFDF91CF911F910F91FF90EF904E
:101B1000DF90CF90BF90AF909F908F907F906F900D
:101B20005F904F903F902F90089508951F93CF930B
:101B3000DF93C1E0C0937701882399F1D091B80079
:101B40001091BA008091BC008A7B8093BC0060E059
:101B500082E10E94C00360E083E10E94C003109212
:101B6000E101C093E0011092BB0161E082E10E94BB
:101B7000C00361E083E10E94C0038091B9008E7FC1
:101B80008093B9008091B9008D7F8093B90088E47B
:101B90008093B80085E48093BC001093BA00D09382
:101BA000B800DF91CF911F9108958F929F92AF92CD
:101BB000BF92CF92DF92EF92FF920F931F93CF933A
:101BC000DF93EC01162F8D8D9E8D892B09F4AEC00D
:101BD0002DA93EA94FA958AD60E074E284EF90E0D2
:101BE0000E94021620513109410951095695479525
:101BF000379527952093B800112309F4A7C017EA59
:101C00008D8D9E8D009709F41CC129A131E0309380
:101C1000E701209309021092E80110920A02DC0108
:101C2000ED91FC910190F081E02D60E009958D8DA2
:101C30009E8DDC01ED91FC910190F081E02D612FF2
:101C4000099500910A02013208F0A7C0109109021B
:101C50000E941F046B017C018091E101811178C019
:101C600082E08093E10181E08093E0018FEF809337
:101C7000DF011092DE010093DD01A9EEB1E0EDEB92
:101C8000F1E080E00813B5C01092BC018091BC0166
:101C9000110F182B1093BC018091BB01813009F00A
:101CA000ACC01092BB010E941F046B017C018091AB
:101CB000BC018093BB008091E3019091E401A0916D
:101CC000E501B091E601892B8A2B8B2BA1F00E94B4
:101CD0001F040091E3011091E4012091E50130918E
:101CE000E6016C197D098E099F0906171707280759
:101CF000390708F44EC08091BC0083FDD8CF85EC35
:101D00008093BC000E941F046B017C018091E10163
:101D1000823009F474C08091DF018F3FF1F180912E
:101D2000DF018032D1F18091DF0137C08B8D9C8D36
:101D3000892B21F09EAD8FAD9CBD8DBDEFA5F8A97F
:101D400090818CA980958923808356CF16EA58CF3D
:101D50008091E3019091E401A091E501B091E60149
:101D6000892B8A2B8B2B09F477CF0E941F0480903C
:101D7000E3019090E401A090E501B090E6016C19B8
:101D80007D098E099F0986169706A806B90608F0F0
:101D900063CF8091E2010E94960D1092E8011092AB
:101DA0000A021092E7018D8D9E8D892B09F47DC06A
:101DB00029AD3AAD4BAD5CAD60E074E284EF90E0EC
:101DC0000E94021620513109410951095695479543
:101DD000379527952093B800DF91CF911F910F91F0
:101DE000FF90EF90DF90CF90BF90AF909F908F903B
:101DF00008959D9191938F5F45CF85EE81CF80911E
:101E0000E3019091E401A091E501B091E601892BF5
:101E10008A2B8B2B09F47ACF0E941F040091E301D7
:101E20001091E4012091E5013091E6016C197D09E2
:101E30008E099F09061717072807390708F066CF8C
:101E4000A8CFEDA5FEA590818BA9809589238083DD
:101E50008B8D9C8D892B39F01EBD00000DB407FEC3
:101E6000FDCF8EB5A0CF28E030E090E8E9A5FAA537
:101E700089A9412F4923A9F04081842B8083EBA5B8
:101E8000FCA580814AA9842B8083EBA5FCA5408119
:101E90008AA980958423808396952150310931F752
:101EA00082CF408180958423E9CFEFA5F8A9808176
:101EB0009CA9892B808390CF20919801260F3327EE
:101EC000331F21323105ECF42091E101FC0190E057
:101ED00080E0243069F082E00895A091980121917A
:101EE000AC0148585E4FA40FB52FB11D2C9301963D
:101EF000861798F380919801680F6093980180E0AD
:101F0000089581E008958FEF9FEF08958FEF9FEF81
:101F100008958091760190E09195819591090895B9
:101F2000CF92DF92EF92FF920F931F93CF93DF93A5
:101F30007C01CB018A012091E701222389F0EB018A
:101F40006B01C40ED51ECC15DD0569F06991D70172
:101F5000ED91FC910190F081E02DC7010995F3CF3F
:101F6000642F0E945C0FC801DF91CF911F910F91E8
:101F7000FF90EF90DF90CF900895CF93DF931F9263
:101F8000CDB7DEB769832091E7012223F9F02091D4
:101F90000A02203258F021E030E0FC013383228332
:101FA00090E080E00F90DF91CF9108958091E8015B
:101FB000E82FF0E0E751FE4F998190838F5F809387
:101FC000E80180930A0281E090E0ECCF61E0CE016D
:101FD00001960E945C0FF7CF90E080E00895880F93
:101FE000982F20E0992329F0392F3170230F9695EF
:101FF000F9CF20FF81600895CF92DF92EF92FF9298
:102000000F931F93CF93DF93E82E61E084E00E944B
:10201000EE0308E010E080E8F82E93E2C92ED12C00
:10202000CBECD2E06E2D6F2187E00E94C003C60189
:102030000197F1F761E084E00E94C003CE010197AF
:10204000F1F760E084E00E94C003CE010197F1F750
:10205000F6940150110931F78BEA94E00197F1F7FA
:1020600060E087E00E94EE032197F1F760E084E0F2
:102070000E94EE038BE891E00197F1F70E941F04A4
:102080006B017C0184E00E949703892BA1F40E94DC
:102090001F046C197D098E099F09693873418105F8
:1020A000910580F3DF91CF911F910F91FF90EF90F9
:1020B000DF90CF9008958BEA94E00197F1F761E00B
:1020C00084E00E94EE0360E084E00E94C00387E0A9
:1020D0000E949703892BD9F361E087E0DF91CF91CC
:1020E0001F910F91FF90EF90DF90CF900C94EE0333
:1020F000FC0101900020E9F73197AF01481B590B13
:10210000BC018EE592E00C948204CF93DF930E9491
:102110006F05EC0187E591E00E9478108C0F9D1F00
:10212000DF91CF910895CF92DF92EF92FF920F93BC
:102130001F93CF93DF930E94760400915A0210916F
:102140005B0220915C0230915D026B017C01C01A40
:10215000D10AE20AF30A97018601083813412105E2
:102160003105A0F060935A0270935B0280935C0289
:1021700090935D028AEF95E00E946F058EE893E0F0
:102180000E94781088EF95E00E94851060E087E05B
:102190000E94EE0360E085E00E94C0038BE891E0BE
:1021A0000197F1F70E941F046B017C0187E00E94F8
:1021B0009703019711F50E941F046C197D098E0980
:1021C0009F09693873418105910580F361E085E0DD
:1021D0000E94C00380915902882309F48EC0109296
:1021E00059028DED95E0DF91CF911F910F91FF90F6
:1021F000EF90DF90CF900C94851061E085E00E9415
:10220000C0038BE891E00197F1F70E941F046B0176
:102210007C0187E00E949703892B61F40E941F04D0
:102220006C197D098E099F096938734181059105F3
:1022300080F3D0CF61E087E00E94EE0361E084E0AC
:102240000E94EE0360E087E00E94C003CBE8D1E08B
:10225000CE010197F1F760E084E00E94C00321976E
:10226000F1F780915902811107C081E080935902F2
:1022700088EE95E00E9485108BE90E94FC0F60E0DB
:1022800085E00E94C00380E00E94EF0FC82F0E94EB
:10229000FC0F8C2F0E94FC0F8C2F0E94FC0FCEE8AD
:1022A000D3E008E913E08991811101C080E20E9426
:1022B000EF0F0E94FC0F0C171D07A9F760E087E0E5
:1022C0000E94C0038BE99FE00197F1F761E085E090
:1022D0000E94C0038BEC97E00197F1F761E084E086
:1022E0000E94C003CBE1D3E0CE010197F1F761E09A
:1022F00087E00E94C0032197F1F7DF91CF911F91F2
:102300000F91FF90EF90DF90CF900895CF93DF93E0
:102310000E947810EC0187E591E00E9478108C0F04
:102320009D1FDF91CF9108954FE350E0BC0187E4FA
:1023300093E00E947817E7E4F3E017AE01900020E5
:10234000E9F7E854F340E0938703109288030E9472
:1023500076046093890370938A0380938B03909330
:102360008C0381E080938D030E9431030C949310C1
:102370000E94631785ED8093BC008091E3019091EA
:10238000E401A091E501B091E6010796A11DB11D00
:1023900023E0B695A795979587952A95D1F7209133
:1023A000BC0024FD03C01092E10108954091E301B7
:1023B0005091E4016091E5017091E601452B462BB7
:1023C000472B69F30097A105B10541F02AE22A9550
:1023D000F1F700C00197A109B109E1CF8091E201B5
:1023E0000C94960DCF93DF93CDB7DEB7C054D109CF
:1023F0000FB6F894DEBF0FBECDBF68E670E0CE0129
:1024000001960E94E715CE0101960E949411C05CCE
:10241000DF4F0FB6F894DEBF0FBECDBFDF91CF9177
:1024200008951F920F920FB60F9211242F933F938E
:102430008F939F93AF93BF938091510290915202DB
:10244000A0915302B09154023091500223E0230F27
:102450002D3758F50196A11DB11D20935002809390
:10246000510290935202A0935302B0935402809170
:10247000550290915602A0915702B09158020196D0
:10248000A11DB11D8093550290935602A09357024F
:10249000B0935802BF91AF919F918F913F912F912F
:1024A0000F900FBE0F901F90189526E8230F0296ED
:1024B000A11DB11DD2CF1F920F920FB60F92112402
:1024C0002F933F934F935F936F937F938F939F933C
:1024D000AF93BF93EF93FF938EE592E00E940005C8
:1024E000FF91EF91BF91AF919F918F917F916F91EC
:1024F0005F914F913F912F910F900FBE0F901F90C2
:1025000018951F920F920FB60F9211242F938F934D
:102510009F93EF93FF93E0916E02F0916F028081A1
:10252000E0917402F091750282FD1BC09081809150
:1025300077028F5F8F7320917802821741F0E091CC
:102540007702F0E0E25AFD4F958F80937702FF917A
:10255000EF919F918F912F910F900FBE0F901F9031
:1025600018958081F4CF1F920F920FB60F9211240D
:102570002F933F934F935F936F937F938F939F938B
:10258000AF93BF93EF93FF938091B900887F80361C
:1025900009F44AC0F0F5883209F4A5C018F5803175
:1025A00009F499C0B8F4882309F4F5C0883009F417
:1025B00092C0FF91EF91BF91AF919F918F917F91C9
:1025C0006F915F914F913F912F910F900FBE0F90A0
:1025D0001F901895883109F486C0803251F7809396
:1025E000DF0114C0803409F49BC040F48033B9F398
:1025F0008833F9F68093DF0185ECAEC0803509F4AD
:1026000083C0883509F494C0883499F60E94BA11C1
:10261000D0CF883909F48AC038F5883729F050F4CA
:10262000883611F0803729F683E08093E10110921B
:10263000BA0155C0883809F479C0803919F080385A
:1026400009F0B7CF8091BA01803208F06FC0E091F5
:10265000BA0181E08E0F8093BA018091BB00F0E057
:10266000E656FE4F80833BC0803B39F0D0F4803A81
:1026700009F477C0883A09F09CCF84E08093E101A7
:102680001092990110929801F0E0E0E00995809194
:10269000980181110FC081E0809398011092780118
:1026A00009C0803C09F4A8CF883C09F4A5CF883B39
:1026B00009F07FCFE091990181E08E0F809399011D
:1026C000F0E0E858FE4F80818093BB009091990123
:1026D0008091980129C08091BC018093BB0085EC5A
:1026E0008093BC0066CF9091DE018091DD01981748
:1026F00058F5E091DE0181E08E0F8093DE01F0E07D
:10270000E354FE4F8081E9CFE091DE0181E08E0F3E
:102710008093DE018091BB00F0E0E354FE4F8083A4
:102720009091DE018091DD019817C8F285E8D8CF3D
:10273000E091DE0181E08E0F8093DE018091BB008D
:10274000F0E0E354FE4F80838091E00181115ECF81
:1027500081E08093BB0184EA8093BC001092E10188
:1027600028CF85EC8093BC001092E1018091BA01E2
:10277000803230F4E091BA01F0E0E656FE4F10826C
:102780006091BA0170E08AE991E0F0E0E0E009953B
:102790001092BA010ECF1092DF0138CFEEE5F2E0D1
:1027A0001382128248EE53E060E070E04483558368
:1027B000668377838BE091E09183808385EC90E062
:1027C0009587848784EC90E09787868780EC90E0FB
:1027D000918B808B81EC90E0938B828B82EC90E0EC
:1027E000958B848B86EC90E0978B868B118E128E66
:1027F000138E148EABEFB2E013961C921E921297BA
:1028000014964D935D936D937C9317978DE191E0B2
:1028100011969C938E93E7E0F3E01382128220E8F6
:1028200030E03583248380E490E09783868331878A
:10283000208793878287168A1586148617861686C0
:1028400081E0858B848B2FEF3FEF338B228B318B95
:10285000208B878B108E128E118E8FE291E09183E8
:102860008083148E138EB68FA58F10A2178E8FEFD4
:1028700084A385A386A387A380A780E89AE1A6E026
:10288000B0E085AB96ABA7ABB0AF80EA96E8A1E02D
:10289000B0E081AF92AFA3AFB4AF80E586AF17AE23
:1028A00010928703109288031092890310928A0372
:1028B00010928B0310928C0310928D03E7E4F3E0E7
:1028C00080E4DF011D928A95E9F74AE050E060E27A
:1028D00070E08EE893E00E946817109298030895C4
:1028E000789484B5826084BD84B5816084BD85B5EB
:1028F000826085BD85B5816085BD80916E008160F7
:1029000080936E001092810080918100826080939C
:10291000810080918100816080938100809180009E
:102920008160809380008091B10084608093B100C9
:102930008091B00081608093B00080917A008460C3
:1029400080937A0080917A00826080937A008091EF
:102950007A00816080937A0080917A008068809309
:102960007A001092C100E0916E02F0916F0282E055
:102970008083E0916A02F0916B021082E0916C0218
:10298000F0916D028FEC808310927602E0917202DA
:10299000F091730286E08083E0917002F091710201
:1029A000808180618083E0917002F091710280816A
:1029B00088608083E0917002F0917102808180686C
:1029C0008083E0917002F091710280818F7D80831D
:1029D00061E088E00E94EE0360E088E00E94C003AE
:1029E00061E085E00E94EE0361E087E00E94EE0373
:1029F00061E084E00E94EE0361E085E00E94C00394
:102A000061E087E00E94C00361E084E00E94C003AF
:102A100061E088E00E94C00364EF71E080E090E034
:102A20000E9444040E94F211C0E0D0E011E08EE563
:102A300092E00E94E004892B09F447C08EE592E001
:102A40000E94BE04E0914F028A3011F08D3089F56A
:102A5000EE2369F3F0E0E15FFD4F10826AE571E07B
:102A60008FE092E00E946F17892B39F482E691E0A3
:102A70000E94861110924F02DACF68E671E08FE073
:102A800092E00E946F17892B69F40E94760460938C
:102A90000B0270930C0280930D0290930E0282E75A
:102AA00091E0E6CF8FE092E00E9494111092000135
:102AB000ECCFEF3308F0BBCF91E09E0F90934F0225
:102AC000F0E0E15FFD4F8083B2CF0E947604209159
:102AD0000001211115C0C0900B02D0900C02E090B3
:102AE0000D02F0900E026C197D098E099F0960336A
:102AF00075478105910520F0109300010E94F211A5
:102B00000E94760420918D033CEDC32E35E0D32E38
:102B1000E12CF12C211106C024EFC22EDD24D39428
:102B2000E12CF12C409187034B3078F180908903A0
:102B300090908A03A0908B03B0908C032B013C01F2
:102B4000481859086A087B08530142018C149D04F7
:102B5000AE04BF04D0F06093890370938A0380931E
:102B60008B0390938C032091880330E02F5F3F4FBD
:102B7000642F70E06E5F7F4FC9010E94EE15809355
:102B8000880310928D030E9431030E9493106AE023
:102B900070E080E090E00E944404209709F447CF61
:102BA0000E94EC04882309F442CF0E9400003FCF2A
:102BB0008FE291E0909308038093070380912603AE
:102BC00090912703009711F00C94DA160895FB01F9
:102BD000DC0105900D920020E1F7089597FB072E88
:102BE00016F4009407D077FD09D00E94241607FC44
:102BF00005D03EF4909581959F4F0895709561950D
:102C00007F4F0895A1E21A2EAA1BBB1BFD010DC028
:102C1000AA1FBB1FEE1FFF1FA217B307E407F5078C
:102C200020F0A21BB30BE40BF50B661F771F881F68
:102C3000991F1A9469F760957095809590959B01FE
:102C4000AC01BD01CF010895AA1BBB1B51E107C018
:102C5000AA1FBB1FA617B70710F0A61BB70B881F2C
:102C6000991F5A95A9F780959095BC01CD010895BB
:102C7000EE0FFF1F0590F491E02D09940F931F9321
:102C8000CF93DF938230910510F482E090E0E091E1
:102C90009B03F0919C0330E020E0B0E0A0E030978F
:102CA00099F42115310509F44AC0281B390B243049
:102CB0003105D8F58A819B816115710589F1FB0188
:102CC00093838283FE0111C040815181028113816F
:102CD00048175907E0F04817590799F4109761F021
:102CE00012960C93129713961C933296CF01DF9194
:102CF000CF911F910F91089500939B0310939C0314
:102D0000F4CF2115310551F04217530738F0A901CE
:102D1000DB019A01BD01DF01F801C1CFEF01F9CF5D
:102D200090939C0380939B03CDCFFE01E20FF31F92
:102D3000819391932250310939832883D7CF2091F1
:102D4000990330919A03232B41F420910301309190
:102D5000040130939A03209399032091010130914B
:102D600002012115310541F42DB73EB7409105010F
:102D700050910601241B350BE0919903F0919A03C1
:102D8000E217F307A0F42E1B3F0B2817390778F042
:102D9000AC014E5F5F4F2417350748F04E0F5F1FA1
:102DA00050939A0340939903819391939FCFF0E0BE
:102DB000E0E09CCFCF93DF930097E9F0FC013297DE
:102DC00013821282A0919B03B0919C03ED0130E02D
:102DD00020E01097A1F420813181820F931F209170
:102DE000990330919A032817390709F061C0F093CD
:102DF0009A03E0939903DF91CF910895EA01CE17EA
:102E0000DF07E8F54A815B819E0141155105B1F765
:102E1000E901FB83EA8349915991C40FD51FEC174F
:102E2000FD0761F4808191810296840F951FE9016D
:102E300099838883828193819B838A83F0E0E0E099
:102E400012968D919C9113970097B9F52D913C9115
:102E50001197CD010296820F931F20919903309113
:102E60009A032817390739F6309751F510929C03C9
:102E700010929B03B0939A03A0939903BCCFD38382
:102E8000C28340815181840F951FC817D90761F40F
:102E90004E5F5F4F88819981480F591F518340834E
:102EA0008A819B81938382832115310509F0B0CFFC
:102EB000F0939C03E0939B039ECFFD01DC01C0CF08
:102EC00013821282D7CF81E090E0F8940C94871798
:102ED000DC0101C06D9341505040E0F70895FB01C3
:102EE000DC018D91019080190110D9F3990B08959F
:102EF000FB01DC014150504048F001900D92002050
:102F0000C9F701C01D9241505040E0F7089513E009
:102F1000C6E0D3E004C0FE010E9438162196C730F7
:082F2000D107C9F7F894FFCFB7
:102F28000100009D0380000000000022058204AF1C
:102F3800048A05E004BE04D20400000000BD0F901E
:102F48000FEC0FB80C890F860F830F000000003BB1
:102F58000A8204EC0F950D5107B80CE10CB90CD599
:102F68000CC90CE80CB80C0108D50DC1060A0701FC
:102F78000CE40B6C0B0D0B0D0A0076657273696F10
:102F88006E00312E352E32006B656570616C697686
:062F980065006F6B0000F4
:00000001FF
