:100000000C948C000C94B4000C94B4000C94B400C8
:100010000C94B4000C94B4000C94B4000C94B40090
:100020000C94B4000C94B4000C94B4000C94B40080
:100030000C94B4000C94B4000C94B4000C94B40070
:100040000C9488040C94B4000C94F8040C94D2041E
:100050000C94B4000C94B4000C94B4000C94B40050
:100060000C94B4000C94B4005B646961675D205427
:10007000494420646961676E6F73746963206669BF
:10008000726D776172652072756E6E696E670000C1
:10009000000000240027002A00000000002500289E
:1000A000002B0000000000230026002900040404A7
:1000B0000404040404020202020202030303030311
:1000C00003010204081020408001020408102001EE
:1000D00002040810200000000800020100000304D0
:1000E0000700000000000000005B5449445D206CE4
:1000F0006F7374005B5449445D20636F6E6E65637B
:100100007465640022005B5449445D206672616D31
:10011000653A202200002A0511241FBECFEFD8E047
:10012000DEBFCDBF11E0A0E0B1E0ECE3FEE002C035
:1001300005900D92AE31B107D9F722E0AEE1B1E002
:1001400001C01D92AE31B207E1F710E0CCE8D0E07B
:1001500004C02197FE010E940007CB38D107C9F7E0
:100160000E947C050C941C070C940000833081F0E5
:1001700028F4813099F08230A9F008958730A9F0F1
:100180008830C9F08430B1F4809180008F7D03C045
:10019000809180008F7780938000089584B58F7759
:1001A00084BD089584B58F7DFBCF8091B0008F779B
:1001B0008093B00008958091B0008F7DF9CFCF93E8
:1001C000DF93282F30E0F901EB52FF4F8491F901C2
:1001D000EF53FF4FD491F901E355FF4FC491CC2366
:1001E000A1F081110E94B600EC2FF0E0EE0FFF1F8E
:1001F000ED55FF4FA591B491EC91ED2381E090E096
:1002000009F480E0DF91CF91089580E090E0FACF8B
:100210001F93CF93DF93282F30E0F901EB52FF4F6C
:100220008491F901EF53FF4FD491F901E355FF4F4A
:10023000C491CC23A9F0162F81110E94B600EC2F97
:10024000F0E0EE0FFF1FE756FF4FA591B4918FB777
:10025000F894EC91111108C0D095DE23DC938FBF88
:10026000DF91CF911F910895DE2BF8CFCF93DF93CD
:1002700090E0FC01EF53FF4F249183559F4FFC0109
:1002800084918823D1F090E0880F991FFC01E157F9
:10029000FF4FA591B491FC01E756FF4FC591D49152
:1002A00061110EC09FB7F8948C91E22FE0958E23D8
:1002B0008C932881E223E8839FBFDF91CF9108953B
:1002C0008FB7F894EC91E22BEC938FBFF6CF3FB74A
:1002D000F89480911F0190912001A0912101B0918B
:1002E000220126B5A89B05C02F3F19F00196A11D3C
:1002F000B11D3FBFBA2FA92F982F8827BC01CD0170
:10030000620F711D811D911D42E0660F771F881FCE
:10031000991F4A95D1F708958F929F92AF92BF92FD
:10032000CF92DF92EF92FF924B015C010E94670136
:100330006B017C010E9467016C197D098E099F0980
:10034000683E734081059105A8F321E0821A910867
:10035000A108B10888EEC80E83E0D81EE11CF11C8C
:1003600081149104A104B10429F7FF90EF90DF906C
:10037000CF90BF90AF909F908F900895AF92BF9213
:10038000CF92DF92EF92FF920F931F93CF93DF9361
:100390006C017B018B01040F151FEB015E01AE1890
:1003A000BF08C017D10759F06991D601ED91FC91B2
:1003B0000190F081E02DC6010995892B79F7C501DF
:1003C000DF91CF911F910F91FF90EF90DF90CF9031
:1003D000BF90AF900895FC01538D448D252F30E0E0
:1003E000842F90E0821B930B541710F0CF96089542
:1003F00001970895FC01918D828D981761F0A28D6F
:10040000AE0FBF2FB11D5D968C91928D9F5F9F7334
:10041000928F90E008958FEF9FEF0895FC01918DEA
:10042000828D981731F0828DE80FF11D858D90E057
:1004300008958FEF9FEF0895FC01918D228D892FF4
:1004400090E0805C9F4F821B91098F7399270895DC
:100450008CE291E00E941C0221E0892B09F420E04B
:10046000822F089580E090E0892B29F00E942802D5
:1004700081110C9400000895FC01A48DA80FB92FE0
:10048000B11DA35ABF4F2C91848D90E001968F73BC
:100490009927848FA689B7892C93A089B1898C91DB
:1004A000837080648C93938D848D981306C002882A
:1004B000F389E02D80818F7D80830895EF92FF92F4
:1004C0000F931F93CF93DF93EC0181E0888F9B8D77
:1004D0008C8D98131AC0E889F989808185FF15C031
:1004E0009FB7F894EE89FF896083E889F989808154
:1004F0008370806480839FBF81E090E0DF91CF9123
:100500001F910F91FF90EF900895F62E0B8D10E044
:100510000F5F1F4F0F731127E02E8C8D8E110CC0B3
:100520000FB607FCFACFE889F989808185FFF5CFFE
:10053000CE010E943C02F1CFEB8DEC0FFD2FF11D9F
:10054000E35AFF4FF0829FB7F8940B8FEA89FB893B
:1005500080818062CFCF0F931F93CF93DF938C0165
:10056000D0E0C0E0F801EC0FFD1F6491662341F07C
:100570008CE291E00E945E02892B11F02196F2CF6D
:10058000CE01DF91CF911F910F910895CF93DF930B
:10059000EC01888D8823B9F0AA89BB89E889F9899B
:1005A0008C9185FD03C0808186FD0DC00FB607FCD0
:1005B000F7CF8C9185FFF2CF808185FFEDCFCE0103
:1005C0000E943C02E9CFDF91CF910895880F982FC8
:1005D00020E0992329F0392F3170230F9695F9CF18
:1005E00020FF81600895CF92DF92EF92FF920F93E8
:1005F0001F93CF93DF93E82E61E084E00E943601E1
:1006000008E010E080E8F82E93E2C92ED12CCBEC64
:10061000D2E06E2D6F2186E00E940801C60101978D
:10062000F1F761E084E00E940801CE010197F1F743
:1006300060E084E00E940801CE010197F1F7F69492
:100640000150110931F78BEA94E00197F1F760E06E
:1006500086E00E9436012197F1F760E084E00E9475
:1006600036018BE891E00197F1F70E9467016B0179
:100670007C0184E00E94DF00892BA1F40E946701C5
:100680006C197D098E099F096938734181059105AF
:1006900080F3DF91CF911F910F91FF90EF90DF904A
:1006A000CF9008958BEA94E00197F1F761E084E040
:1006B0000E94360160E084E00E94080186E00E940A
:1006C000DF00892BD9F361E086E0DF91CF911F91A4
:1006D0000F91FF90EF90DF90CF900C943601CF9365
:1006E000DF930E94AB02EC0142E050E062E171E076
:1006F0008CE291E00E94BE018C0F9D1FDF91CF9193
:100700000895CF92DF92EF92FF920F931F93CF93B2
:10071000DF932FB7F8948091240190912501A09147
:100720002601B09127012FBF409128015091290146
:1007300060912A0170912B018C019D01041B150B06
:10074000260B370BB901A8014838534161057105E3
:10075000F8F08093280190932901A0932A01B09387
:100760002B0186E091E00E94AB0243E152E0FA01E6
:1007700001900020E9F7AF014451524063E172E07B
:100780008CE291E00E94BE0184E091E00E946F0340
:1007900060E086E00E94360160E085E00E9408018A
:1007A0008BE891E00197F1F70E9467016B017C01F2
:1007B00086E00E94DF00019711F50E9467016C1925
:1007C0007D098E099F09693873418105910580F380
:1007D00061E085E00E94080180912301882309F4EB
:1007E0008EC01092230189EE90E0DF91CF911F918E
:1007F0000F91FF90EF90DF90CF900C946F0361E02A
:1008000085E00E9408018BE891E00197F1F70E94D2
:1008100067016B017C0186E00E94DF00892B61F497
:100820000E9467016C197D098E099F09693873411F
:100830008105910580F3D0CF61E086E00E9436010A
:1008400061E084E00E94360160E086E00E940801D9
:10085000CBE8D1E0CE010197F1F760E084E00E949F
:1008600008012197F1F780912301811107C081E0F0
:100870008093230184EF90E00E946F038BE90E9434
:10088000F30260E085E00E94080180E00E94E60239
:10089000C82F0E94F3028C2F0E94F3028C2F0E941B
:1008A000F302C3E1D2E00DE112E08991811101C0B0
:1008B00080E20E94E6020E94F3020C171D07A9F7CE
:1008C00060E086E00E9408018BE99FE00197F1F764
:1008D00061E085E00E9408018BEC97E00197F1F759
:1008E00061E084E00E940801CBE1D3E0CE010197F2
:1008F000F1F761E086E00E9408012197F1F7DF91AE
:10090000CF911F910F91FF90EF90DF90CF900895BE
:100910001F920F920FB60F9211242F933F938F9334
:100920009F93AF93BF938091240190912501A09153
:100930002601B091270130911E0123E0230F2D37AE
:1009400058F50196A11DB11D20931E01809324012D
:1009500090932501A0932601B093270180911F0158
:1009600090912001A0912101B09122010196A11D39
:10097000B11D80931F0190932001A0932101B0939A
:100980002201BF91AF919F918F913F912F910F9035
:100990000FBE0F901F90189526E8230F0296A11DF9
:1009A000B11DD2CF1F920F920FB60F9211242F9329
:1009B0003F934F935F936F937F938F939F93AF93E7
:1009C000BF93EF93FF938CE291E00E943C02FF9172
:1009D000EF91BF91AF919F918F917F916F915F91B7
:1009E0004F913F912F910F900FBE0F901F90189530
:1009F0001F920F920FB60F9211242F938F939F93F4
:100A0000EF93FF93E0913C01F0913D018081E091F3
:100A10004201F091430182FD1BC09081809145010C
:100A20008F5F8F7320914601821741F0E09145015D
:100A3000F0E0E45DFE4F958F80934501FF91EF91CB
:100A40009F918F912F910F900FBE0F901F9018952F
:100A50008081F4CFECE2F1E01382128288EE93E021
:100A6000A0E0B0E084839583A683B78384E091E01F
:100A70009183808385EC90E09587848784EC90E077
:100A80009787868780EC90E0918B808B81EC90E05B
:100A9000938B828B82EC90E0958B848B86EC90E03C
:100AA000978B868B118E128E138E148E10920902E4
:100AB00010920A0210920B0210920C0210920D0278
:100AC00010920E0210920F02109210021092110258
:100AD00010921202E9ECF1E080E4DF011D928A95A8
:100AE000E9F74AE050E060E270E083E192E00E94C2
:100AF000060710921D020895789484B5826084BD23
:100B000084B5816084BD85B5826085BD85B5816011
:100B100085BD80916E00816080936E00109281008F
:100B2000809181008260809381008091810081604A
:100B3000809381008091800081608093800080910B
:100B4000B10084608093B1008091B0008160809397
:100B5000B00080917A00846080937A0080917A005E
:100B6000826080937A0080917A00816080937A001D
:100B700080917A00806880937A001092C100E091A1
:100B80003C01F0913D0182E08083E0913801F091D9
:100B900039011082E0913A01F0913B018FEC8083A2
:100BA00010924401E0914001F091410186E0808380
:100BB000E0913E01F0913F01808180618083E0916E
:100BC0003E01F0913F01808188608083E0913E0189
:100BD000F0913F01808180688083E0913E01F09137
:100BE0003F0180818F7D808361E087E00E94360134
:100BF00060E087E00E94080161E085E00E94360124
:100C000061E086E00E94360161E084E00E943601E6
:100C100061E085E00E94080161E086E00E94080131
:100C200061E084E00E94080161E087E00E94080121
:100C300064EF71E080E090E00E948C014FE350E0AF
:100C400065E171E089EC91E00E940D0710920802C5
:100C500089EC91E0FC0101900020E9F7CF018A5C6A
:100C600091408093090210920A022FB7F894809164
:100C7000240190912501A0912601B09127012FBF59
:100C800080930B0290930C02A0930D02B0930E027E
:100C90002FB7F8948091240190912501A09126010D
:100CA000B09127012FBF8854944FAF4FBF4F80930F
:100CB0000F0290931002A0931102B0931202809140
:100CC0000A02309109022AE0280FA3E1B2E090E283
:100CD000831728F4E82FF0E0E753FE4F90819D93AF
:100CE0008F5F2813F4CF10921D020E94810388E6C3
:100CF00090E00E946F03C0E0D0E02FB7F89480919D
:100D0000240190912501A0912601B09127012FBFC8
:100D1000609109026B3008F460C000910F021091DD
:100D20001002209111023091120280179107A20740
:100D3000B30708F452C000910B0210910C022091ED
:100D40000D0230910E026C017D01C01AD10AE20A37
:100D5000F30A97018601043F114021053105E8F1AE
:100D600080930B0290930C02A0930D02B0930E029D
:100D700020910A022F5F20930A02462F50E030E0B4
:100D8000FA0139972E173F077CF010920A02885417
:100D9000944FAF4FBF4F80930F0290931002A093D8
:100DA0001102B093120205C04A50510924173507A9
:100DB00071F380910A022AE0280FA3E1B2E090E2E9
:100DC000861728F4E82FF0E0E753FE4F90819D93BB
:100DD0008F5F8213F4CF10921D020E9481036AE09C
:100DE00070E080E090E00E948C01209709F485CFAC
:100DF0000E942802882309F480CF0E9400007DCF42
:100E0000EE0FFF1F0590F491E02D0994DC0101C065
:100E10006D9341505040E0F70895FB01DC014150D3
:100E2000504048F001900D920020C9F701C01D927A
:0C0E300041505040E0F70895F894FFCFC7
:100E3C00000000005E02BE01EB01C6021C02FA01BA
:0E0E4C000E020D0A0057616974696E6700009E
:00000001FF
